:100000000C94B5270C94E6270C94E6270C94E6276D
:100010000C94E6270C94E6270C94E6270C94E6272C
:100020000C94E6270C94E6270C94E6270C94E6271C
:100030000C94E6270C94E6270C94E6270C94E6270C
:100040000C94E6270C94FA8F0C94E6270C94E62780
:100050000C94E6270C94E6270C94C3A70C94D2F1D9
:100060000C94E6270C9450400C94E6270C94E62759
:100070000C94E6270C94E6270C94E6270C94E627CC
:100080000C94E6270C94E6270C94E6270C94E627BC
:100090000C94E6270C94E6270C94E6270C94B2EA1D
:1000A0000C94E6270C94E6270C94E6270C94E6279C
:1000B0000C94E6270C94E6270C94E6270C94E6278C
:1000C0000C94E6270C94E6270C94E6270C94E6277C
:1000D0000C94E6270C94E6270C94E6270C94E6276C
:1000E0000C94E6271DA82CA84BA85AA875A884A88C
:1000F0009FA8A4A8A7A8ACA8AFA8B4A8BEA8F5F2CA
:10010000FAF2FFF209F313F38CF31DF325F32DF349
:1001100037F341F34BF35AF364F38CF36EF378F354
:1001200082F3ADF3B0F39FF3A3F3A9F3E7F3B4F3D2
:10013000B8F3BEF3C2F3C6F3CCF3D0F3D4F3E7F3D2
:10014000DAF3DEF3E2F3084AD73B3BCE016E84BC20
:10015000BFFDC12F3D6C74319ABD56833DDA3D0021
:10016000C77F11BED9E4BB4C3E916BAAAABE00006A
:1001700000803F05A84CCDB2D44EB93836A9020C48
:1001800050B9918688083CA6AAAA2ABE0000008021
:100190003F004D383420582059205A2045004361F3
:1001A0006E6E6F7420656E7465722073756264691B
:1001B000723A20004D3234004D32332025730061F5
:1001C00075746F25692E67006572726F7220777281
:1001D0006974696E6720746F2066696C65004E6F84
:1001E00074205344207072696E74696E67005344C2
:1001F000207072696E74696E672062797465200080
:1002000044656C6574696F6E206661696C65642C09
:100210002046696C653A200046696C652064656C0F
:10022000657465643A006F70656E206661696C651F
:10023000642C2046696C653A200057726974696EB7
:100240006720746F2066696C653A20002E0A006F83
:1002500070656E206661696C65642C2046696C650A
:100260003A20002E0A006F70656E206661696C6529
:10027000642C2046696C653A200046696C652073E1
:10028000656C6563746564002053697A653A200083
:1002900046696C65206F70656E65643A20006F700A
:1002A000656E206661696C65642C2046696C653AF0
:1002B00020004E6F772066726573682066696C65F2
:1002C0003A20004E6F7720646F696E672066696C14
:1002D000653A20002220706F7300222070617265E1
:1002E0006E743A2200535542524F5554494E4520A0
:1002F00043414C4C207461726765743A22004B494B
:100300004C4C45442E2000747279696E6720746FDE
:100310002063616C6C207375622D67636F64652068
:1003200066696C6573207769746820746F6F206DDF
:10033000616E79206C6576656C732E204D41582076
:100340006C6576656C2069733A0053442063617272
:1003500064206F6B006F70656E526F6F7420666102
:10036000696C656400766F6C756D652E696E697475
:10037000206661696C656400534420696E6974206D
:100380006661696C0020204D3230302044300020FE
:10039000204D3230302044002044697361626C6526
:1003A000640046696C616D656E7420736574746970
:1003B0006E67733A0020204D32303920530041756A
:1003C000746F2D526574726163743A20533D30200E
:1003D000746F2064697361626C652C203120746FC6
:1003E00020696E74657270726574206578747275B8
:1003F00064652D6F6E6C79206D6F76657320617307
:10040000207265747261637473206F722072656309
:100410006F7665726965730020460020204D32308A
:10042000382053005265636F7665723A20533D451C
:1004300078747261206C656E67746820286D6D2910
:1004400020463A537065656420286D6D2F6D290034
:10045000205A0020460020204D32303720530052D1
:100460006574726163743A20533D4C656E677468BD
:1004700020286D6D2920463A537065656420286DEB
:100480006D2F6D29205A3A205A4C69667420286DC8
:100490006D290020440020490020204D33303420B5
:1004A0005000204C00204300204400204900202020
:1004B0004D333031205000504944207365747469C5
:1004C0006E67733A0020460020420020204D3134F0
:1004D00035204D3220480020460020420020204D8B
:1004E000313435204D312048002046002042002084
:1004F000204D313435204D302048004D61746572F7
:1005000069616C2068656174757020706172616DDD
:1005100065746572733A00205A0020590020204DFE
:10052000323036205800486F6D65206F66667365FF
:100530007420286D6D293A00204500205A0020586B
:100540000020420020540020204D3230352053003E
:10055000416476616E636564207661726961626C84
:1005600065733A20533D4D696E206665656472611E
:10057000746520286D6D2F73292C20543D4D696EB4
:100580002074726176656C2066656564726174655D
:1005900020286D6D2F73292C20423D6D696E696D89
:1005A000756D207365676D656E742074696D652067
:1005B000286D73292C20583D6D6178696D756D200B
:1005C0005859206A65726B20286D6D2F73292C2075
:1005D000205A3D6D6178696D756D205A206A65728B
:1005E0006B20286D6D2F73292C2020453D6D61787F
:1005F000696D756D2045206A65726B20286D6D2FC1
:1006000073290020540020520020204D3230342025
:100610005000416363656C65726174696F6E733A13
:1006200020503D7072696E74696E672C20523D7265
:1006300065747261637420616E6420543D747261EC
:1006400076656C00204500205A0020590020204D7E
:100650003230312058004D6178696D756D204163ED
:1006600063656C65726174696F6E20286D6D2F73A0
:1006700032293A00204500205A0020590020204D00
:100680003230332058004D6178696D756D20666594
:100690006564726174657320286D6D2F73293A004B
:1006A000204500205A0020590020204D3932205882
:1006B0000053746570732070657220756E69743AAA
:1006C0000048617264636F646564204465666175A7
:1006D0006C742053657474696E6773204C6F616429
:1006E00065640020627974657329002073746F72E9
:1006F00065642073657474696E67732072657472C3
:100700006965766564202800206279746573290024
:1007100053657474696E67732053746F72656420D7
:1007200028004572726F722077726974696E672053
:10073000746F20454550524F4D210020496E76611F
:100740006C696420657874727564657220005072FB
:10075000696E7465722068616C7465642E206B69C3
:100760006C6C28292063616C6C656421004B494CDA
:100770004C45442E20004B494C4C45442E20002033
:10078000746F6F206C6F6E67206578747275736913
:100790006F6E2070726576656E7465640020636F9D
:1007A0006C6420657874727573696F6E2070726501
:1007B00076656E746564006F6B00526573656E6478
:1007C0003A20004368616E67652066696C616D65FB
:1007D0006E74004D36303020486F74656E6420743E
:1007E0006F6F20636F6C6420746F206368616E6745
:1007F000652066696C616D656E74004D3330302024
:100800005336353920503230300A4D333030205392
:100810003639382050323030004F666673657420A8
:100820006170706C6965642E004D33303020533434
:10083000302050323030004572723A20546F6F20B1
:100840006661722100546F6F206661722066726F5C
:100850006D207265666572656E636520706F696E86
:10086000740053657474696E672054726176656CA8
:1008700020416363656C65726174696F6E3A200034
:1008800053657474696E6720526574726163742075
:10089000416363656C65726174696F6E3A200053E1
:1008A000657474696E67205072696E742041636369
:1008B000656C65726174696F6E3A2000536574747B
:1008C000696E67205072696E7420616E6420547284
:1008D0006176656C20416363656C65726174696FF4
:1008E0006E3A20004D31343520533C696E64657892
:1008F0003E206F7574206F662072616E67652028D8
:10090000302D3229007A5F6D696E3A2000795F6D73
:10091000696E3A2000785F6D696E3A2000205A3A7D
:100920000020593A0020436F756E7420583A200019
:1009300020453A00205A3A0020593A00583A0046D9
:1009400049524D574152455F4E414D453A4D6172B6
:100950006C696E20312E312E302D5243322046727A
:100960006F6D204172636869766520534F5552431D
:10097000455F434F44455F55524C3A687474703A32
:100980002F2F202E2E2E2050524F544F434F4C5F6E
:1009900056455253494F4E3A312E30204D4143482F
:1009A000494E455F545950453A54415A2045585490
:1009B00052554445525F434F554E543A3120555598
:1009C00049443A30303030303030302D30303030F3
:1009D0002D303030302D303030302D303030303020
:1009E000303030303030300A0054415A204F666683
:1009F0002E0054415A2072656164792E004265646C
:100A000020646F6E652E0020423A0020453A005463
:100A10003A004265642048656174696E672E00483B
:100A2000656174696E6720646F6E652E003F0020FB
:100A3000573A0020453A00543A0048656174696E9F
:100A4000672E2E2E002042403A0020403A00202FF0
:100A500000205400202F0020423A00202F00205474
:100A60003A006F6B004B494C4C45442E20004445E6
:100A70004255472044525952554E20454E41424C12
:100A80004544004445425547204543484F20454E84
:100A900041424C4544002569206D696E2C20256932
:100AA0002073656300456E642066696C65206C691F
:100AB000737400426567696E2066696C65206C69B5
:100AC0007374004E6F206D6F76652E0054415A206E
:100AD00072656164792E00526573756D696E672069
:100AE0007072696E74005761697420666F72207548
:100AF0007365722E2E2E005761726E696E673A20F2
:100B0000486F6D696E672042756D70204469766923
:100B1000736F72203C203100536C6565702E2E2E51
:100B200000220A00556E6B6E6F776E20636F6D6DDD
:100B3000616E643A202200256920686F7572732007
:100B40002569206D696E7574657300446F6E65204C
:100B50007072696E74696E672066696C65004B49D6
:100B60004C4C45442E200053544F505045442E20A9
:100B7000005072696E7465722073746F7070656472
:100B80002064756520746F206572726F72732E20F9
:100B900046697820746865206572726F7220616E94
:100BA0006420757365204D39393920746F20726562
:100BB00073746172742E202854656D70657261744F
:100BC0007572652069732072657365742E20536594
:100BD0007420697420616674657220726573746133
:100BE0007274696E6729004E6F204C696E65204EE5
:100BF000756D626572207769746820636865636BE0
:100C000073756D2C204C617374204C696E653A20AD
:100C1000004E6F20436865636B73756D2077697450
:100C200068206C696E65206E756D6265722C204C53
:100C3000617374204C696E653A2000636865636B6C
:100C400073756D206D69736D617463682C204C61E0
:100C50007374204C696E653A20004C696E65204EB5
:100C6000756D626572206973206E6F74204C6173BC
:100C700074204C696E65204E756D6265722B312C47
:100C8000204C617374204C696E653A20004D3131FF
:100C900030006F6B00446F6E6520736176696E671C
:100CA0002066696C652E004D3239002020506C6141
:100CB0006E6E657242756666657242797465733AE6
:100CC00020002046726565204D656D6F72793A206F
:100CD00000446563202037203230313500436F6D8A
:100CE00070696C65643A20002853656261737469A9
:100CF000616E2C2054415A2900207C204175746873
:100D00006F723A2000323031352D30392D32382093
:100D100031323A303000204C617374205570646178
:100D20007465643A200020312E312E302D5243322A
:100D3000004D61726C696E0020536F66747761724A
:100D40006520526573657400205761746368646F31
:100D500067205265736574002042726F776E206F52
:100D60007574205265736574002045787465726EE1
:100D7000616C20526573657400506F7765725570B1
:100D8000007374617274002200656E71756575651B
:100D9000696E67202200FFFFFF0000A0400000A056
:100DA0004000008040000095430080894300007AA5
:100DB000430000000000000000000000000000955B
:100DC000430080894300007A4300000000000000D7
:100DD00000000000006563686F3A004572726F7230
:100DE0003A0020746F6F206C6F6E672065787472A4
:100DF0007573696F6E2070726576656E74656400D8
:100E000020636F6C6420657874727573696F6E20EF
:100E100070726576656E746564007C3C3E5E2B3D49
:100E20003F2F5B5D3B2C2A225C0045313A20004578
:100E3000303A20005A3A2000593A2000583A20000F
:100E40004D53312C4D53322050696E730A004D388A
:100E50003420582059205A204500656E6473746F01
:100E60007073206869743A205A00205A3A00656EFF
:100E70006473746F7073206869743A205900205944
:100E80003A00656E6473746F7073206869743A20F9
:100E9000580020583A00656E6473746F7073206850
:100EA00069743A200024F4D43050C38E20C2A2408A
:100EB00017828B7011127A910D816CD90AA861E1A9
:100EC00008C7586607615143061E4B5D05C145A71B
:100ED000041A411104093D9803713931034036DB8E
:100EE0000265339102D4305402802E1D02632CEE31
:100EF00001752AC501B028A001102781018F256442
:100F0000012B244B01E0223401AC211F018D200D67
:100F100001801FFC00841EED00971DDF00B81CD26D
:100F200000E61BC600201BBC00641AB200B219A860
:100F3000000A19A0006A189900D117910040178B78
:100F400000B516840031167E00B31579003A15738A
:100F500000C7146F0058146A00EE1366008813630C
:100F60000025135E00C7125B006C12570015125467
:100F700000C111510070114F0021114B00D61049D2
:100F8000008D1047004610440002104200C00F4080
:100F900000800F3E00420F3C00060F3B00CB0E3896
:100FA00000930E37005C0E3500270E3400F30D322F
:100FB00000C10D3100900D3000600D2E00320D2D5E
:100FC00000050D2C00D90C2B00AE0C2900850C2936
:100FD000005C0C2700350C27000E0C2600E80B24C3
:100FE00000C40B2400A00B23007D0B23005A0B210F
:100FF00000390B2100180B2000F80A1F00D90A1E27
:1010000000BB0A1E009D0A1D00800A1D00630A1C09
:1010100000470A1B002C0A1B00110A1A00F7091AC4
:1010200000DD091900C4091900AB0919009209175C
:10103000007B091800630917004C091600360916D1
:1010400000200916000A091500F5081500E008142B
:1010500000CC081400B8081400A408140090081369
:10106000007D0812006B0813005808120046081291
:1010700000340811002308110012081100010811A2
:1010800000F0071000E0071000D0071000C00710A4
:1010900000B0070F00A107100091070E0083070F93
:1010A0000074070F0065070E0057070E0049070E72
:1010B000003B070D002E070E0020070D0013070D43
:1010C0000006070D00F9060C00ED060D00E0060C09
:1010D00000D4060C00C8060C00BC060C00B0060CC0
:1010E00000A4060B0099060C008D060B0082060B6F
:1010F0000077060B006C060B0061060A0057060B12
:10110000004C060A0042060A0038060A002E060AAB
:101110000024060A001A060A001006090007060A3B
:1011200000FD050900F4050900EB050900E20509C9
:1011300000D9050900D0050900C7050900BE050949
:1011400000B5050800AD050800A50509009C0508C7
:1011500000940508008C050800840508007C05083B
:1011600000740508006C050700650508005D0507AB
:1011700000560508004E0507004705070040050812
:101180000038050700310507002A05070023050779
:10119000001C050600160507000F050700080506D8
:1011A0000002050700FB040600F5040700EE040634
:1011B00000E8040600E2040700DB040600D504068C
:1011C00000CF040600C9040600C3040600BD0406DF
:1011D00000B7040600B1040500AC040600A604062E
:1011E00000A00405009B0406009504050090040679
:1011F000008A04050085040500800406007A0405C1
:101200000075040500700405006B04050066040504
:1012100000610405005C0405005704050052040544
:10122000004D04050048040500430405003E040485
:10123000003A04050035040500300404002C0405C0
:101240000027040400230405001E0404001A0404FB
:101250000016040500110404000D0404000904052F
:10126000000404040000040400FC030400F8030468
:1012700000F4030400F0030400EC030400E803049A
:1012800000E4030400E0030400DC030400D80304CA
:1012900000D4030400D0030400CC030400C80303FB
:1012A00000C503030024F404D9201BC40C5C0E9871
:1012B00004C4095F0265077101F405F900FB04B37A
:1012C0000048048700C10369005803550003034523
:1012D00000BE023A008402310053022A002902258E
:1012E0000004022000E4011C00C8011900AF01172E
:1012F00000980114008401130071011000610110B5
:101300000051010E0043010D0036010B002B010BB3
:101310000020010B00150109000C01090003010860
:1013200000FB000800F3000800EB000700E40006E3
:1013300000DE000600D8000600D2000600CC000542
:1013400000C7000500C2000500BD000400B900048C
:1013500000B5000400B1000400AD000400A90004C1
:1013600000A5000300A20003009F0004009B0003EF
:101370000098000300950002009300030090000312
:10138000008D0002008B000300880002008600022E
:101390000084000300810002007F0002007D000243
:1013A000007B000200790002007700010076000255
:1013B000007400020072000100710002006F000260
:1013C000006D0001006C0002006A0001006900026B
:1013D0000067000100660001006500010064000272
:1013E000006200010061000100600001005F000276
:1013F000005D0001005C0001005B0001005A00017B
:10140000005900010058000100570001005600017A
:10141000005500010054000100530000005300017A
:10142000005200010051000100500001004F000176
:10143000004E0000004E0001004D0001004C000174
:10144000004B0000004B0001004A00010049000170
:10145000004800000048000100470001004600006D
:101460000046000100450000004500010044000165
:101470000043000000430001004200000042000160
:10148000004100000041000100400001003F000059
:10149000003F0001003E0000003E0001003D000052
:1014A000003D0001003C0000003C0000003C000149
:1014B000003B0000003B0001003A0000003A000140
:1014C0000039000000390001003800000038000039
:1014D000003800010037000000370001003600002E
:1014E0000036000000360001003500000035000025
:1014F0000035000100340000003400000034000119
:10150000003300000033000000330001003200000F
:101510000032000000320001003100000031000004
:1015200000310001003000000030000000300001F8
:10153000002F0000002F0000002F0000002F0001EE
:10154000002E0000002E0000002E0001002D0000E3
:10155000002D0000002D0000002D0001002C0000D7
:10156000002C0000002C0000002C0001002B0000CB
:10157000002B0000002B0000002B0001002A0000BF
:10158000002A0000002A0000002A000100290000B3
:1015900000290000002900000029000000290001A6
:1015A000002800000028000000280000002800009B
:1015B000002800010027000000270000002700008D
:1015C0000027000000270001002600000026000080
:1015D0000026000000260000002600010025000073
:1015E0000025000000250000002500000025000067
:1015F0000025000100240000002400000024000059
:10160000002400000024000100230000002300004B
:10161000002300000023000000230000002300003E
:101620000023000100220000002200000022000030
:101630000022000000220000002200010021000022
:101640000021000000210000002100000021000016
:101650000021000000210001002000000020000007
:1016600000200000002000000020000000200000FA
:101670000020000000200001001F0000001F0000EB
:10168000001F0000001F0000001F0000001F0000DE
:10169000001F0001001E0000001E0000001E0000D0
:1016A000001E0000004D494E54454D502074726993
:1016B000676765726564004572723A204D494E5401
:1016C000454D5020424544004D415854454D502011
:1016D000747269676765726564004572723A204D7D
:1016E000415854454D502042454400546865726D40
:1016F000616C2052756E6177617900544845524D96
:10170000414C2052554E415741590048656174691A
:101710006E67206661696C65640048656174696E16
:1017200067206661696C6564004D494E54454D50B3
:1017300020747269676765726564004572723A2049
:101740004D494E54454D5000626564002C2073791C
:101750007374656D2073746F7070656421204865C3
:10176000617465725F49443A20004D415854454DBB
:101770005020747269676765726564004572723AD9
:10178000204D415854454D50004B64200023646562
:1017900066696E65202044454641554C545F004BB8
:1017A00069200023646566696E65202044454641D2
:1017B000554C545F004B70200023646566696E656C
:1017C000202044454641554C545F00504944204137
:1017D00075746F74756E652066696E69736865648B
:1017E000212050757420746865206C617374204BDF
:1017F000702C204B6920616E64204B6420636F6EF7
:101800007374616E74732066726F6D2062656C6FA5
:101810007720696E746F20436F6E666967757261B9
:1018200074696F6E2E6800504944204175746F745E
:10183000756E65206661696C6564212074696D65EB
:101840006F75740020403A00543A00423A00504903
:1018500044204175746F74756E65206661696C65AE
:1018600064212054656D70657261747572652074B1
:101870006F6F206869676800204B643A2000204B36
:10188000693A2000204B703A200020436C6173734A
:1018900069632050494420002054753A2000204BB1
:1018A000753A2000206D61783A2000206D696E3A0B
:1018B000200020643A200020626961733A20001001
:1018C00000AD0330016A0150022B0170030A019040
:1018D00004F500B005E500D006D800F007CE0010F2
:1018E00009C500300ABE00500BB700700CB1009063
:1018F0000DAB00B00EA600D00FA200F0109D00109E
:10190000129900301395005014920070158E0090BB
:10191000168B00B0178700D0188400F019810010D2
:101920001B7E00301C7B00501D7900701E760090DD
:101930001F7300B0207000D0216E00F0226B0010E9
:1019400024690030256600502663007027610090EE
:10195000285E00B0295C00D02A5900F02B560010F8
:101960002D5400302E5100502F4E0070304B0090FF
:10197000314800B0324500D0334200F0343E001010
:10198000363B00303737005038330070392E009026
:101990003A2900B03B2300D03C1B00F03D11001061
:1019A0003F0100F03F00001000C90210012C01406F
:1019B00001220170011801B0010E01F00104015073
:1019C00002FA00B002F0003003E600D003DC009021
:1019D00004D2007005C800A006BE000008B400B024
:1019E00009AA00D00BA000600E960060118C0000C8
:1019F00015820020197800C01D6E00A0226400B07E
:101A0000275A00902C500000314600E0343C001072
:101A1000383200903A2800603C1E00A03D1400803F
:101A20003E0A00203F0000436172642072656D6FC2
:101A3000766564004361726420696E7365727465D3
:101A400064004D343238000920000920002D2D2D6E
:101A50002E2D2D002D2D2D002D2D2D002D2D2D0069
:101A60002D2D3A2D2D004D363030004368616E67C4
:101A7000652066696C616D656E7400466C6F7700F9
:101A8000466C6F7700466C6F7700466C6F77004648
:101A9000616E2073706565640046616E20737065C9
:101AA00065640042656400426564004E6F7A7A6C3A
:101AB00065004E6F7A7A6C650053706565640053FB
:101AC00070656564004D61696E004D6F76652058E4
:101AD000004D6F76652059004D6F7665205A0045A0
:101AE0007874727564657200457874727564657295
:101AF000004D6F7665205A004D6F76652059004D78
:101B00006F76652058004D6F7665206178697300A7
:101B10004D6F766520302E316D6D004D6F766520EE
:101B2000316D6D004D6F76652031306D6D005072F6
:101B30006570617265005072656865617420504C13
:101B40004120426564005072656865617420504CA4
:101B50004100507265706172650050726568656120
:101B60007420504554472042656400507265686592
:101B70006174205045544700507265706172650071
:101B8000507265686561742041425320426564006B
:101B900050726568656174204142530050726570EF
:101BA000617265004D383000537769746368207046
:101BB0006F776572206F6E004D383100537769740E
:101BC000636820706F776572206F666600436F6F81
:101BD0006C646F776E005072656865617420414275
:101BE0005300507265686561742050455447005039
:101BF00072656865617420504C41004D3834004472
:101C0000697361626C6520737465707065727300CE
:101C10004D6F766520617869730053657420686F35
:101C20006D65206F666673657473004732380041D6
:101C300075746F20686F6D65004D61696E00537437
:101C40006F7265206D656D6F727900426564004248
:101C50006564004E6F7A7A6C65004E6F7A7A6C65B7
:101C60000046616E2073706565640046616E207386
:101C7000706565640054656D706572617475726538
:101C80000053746F7265206D656D6F7279004265E7
:101C90006400426564004E6F7A7A6C65004E6F7A1C
:101CA0007A6C650046616E207370656564004661FC
:101CB0006E2073706565640054656D706572617443
:101CC0007572650053746F7265206D656D6F727902
:101CD0000042656400426564004E6F7A7A6C65006C
:101CE0004E6F7A7A6C650046616E2073706565642C
:101CF0000046616E2073706565640054656D7065A3
:101D00007261747572650050726568656174204116
:101D1000425320636F6E660050726568656174207F
:101D20005045544720636F6E660050726568656168
:101D30007420504C4120636F6E66005049442D431F
:101D4000005049442D43005049442D44005049441B
:101D50002D44005049442D49005049442D4900501C
:101D600049442D50005049442D5000200820466120
:101D700063740020082046616374002008204D61D0
:101D800078002008204D6178002008204D696E0001
:101D90002008204D696E004175746F74656D700088
:101DA0004F6666004F6E200046616E207370656559
:101DB000640046616E20737065656400426564006E
:101DC000426564004E6F7A7A6C65004E6F7A7A6C69
:101DD0006500436F6E74726F6C0045737465707349
:101DE0002F6D6D004573746570732F6D6D005A73A0
:101DF000746570732F6D6D005A73746570732F6DF9
:101E00006D005973746570732F6D6D00597374652F
:101E100070732F6D6D005873746570732F6D6D0046
:101E20005873746570732F6D6D00412D74726176F7
:101E3000656C00412D74726176656C00412D726590
:101E4000747261637400412D726574726163740011
:101E5000416D6178206500416D6178206500416DBC
:101E60006178207A00416D6178207A00416D617857
:101E7000207900416D6178207900416D617820788A
:101E800000416D61782078005654726176206D694A
:101E90006E005654726176206D696E00566D696EE3
:101EA00000566D696E00566D6178206500566D6153
:101EB00078206500566D6178207A00566D61782033
:101EC0007A00566D6178207900566D61782079002E
:101ED000566D6178207800566D61782078005665DF
:101EE0002D6A65726B0056652D6A65726B00567AB5
:101EF0002D6A65726B00567A2D6A65726B00567892
:101F0000792D6A65726B005678792D6A65726B005F
:101F1000416363656C00416363656C00436F6E747D
:101F2000726F6C0046696C2E204469612E00466910
:101F30006C2E204469612E004520696E206D6D3342
:101F4000004F6666004F6E2000436F6E74726F6CB8
:101F500000556E52657420205600556E52657420EF
:101F6000205600556E526574202B6D6D00556E52D3
:101F70006574202B6D6D00486F70206D6D00486F8B
:101F800070206D6D0052657472616374202056007C
:101F900052657472616374202056005265747261D8
:101FA0006374206D6D0052657472616374206D6D91
:101FB000004175746F526574722E004F6666004F53
:101FC0006E2000436F6E74726F6C00526573746F95
:101FD0007265206661696C73616665004C6F61644F
:101FE000206D656D6F72790053746F7265206D6539
:101FF0006D6F727900526574726163740046696C2A
:10200000616D656E74004D6F74696F6E0054656D1F
:102010007065726174757265004D61696E004D3254
:1020200034004D323320257300022E2E004D61699D
:102030006E004E6F205344206361726400507269D9
:102040006E742066726F6D2053440053746F70205D
:102050007072696E7400526573756D652070726977
:102060006E74005061757365207072696E74004300
:102070006F6E74726F6C005072657061726500549F
:10208000756E6500496E666F2073637265656E00DC
:1020900000060900FE070192032120FFFF08FF0749
:1020A000FF00000006000001070706020080808094
:1020B00080800080030202060105A0A00507070634
:1020C00000005050F850F850500507070600002057
:1020D00078A07028F020050707060000C0C810206F
:1020E0004098180507070600006090A040A8906877
:1020F000020303060104C040800307070601002015
:102100004080808040200307070601008040202097
:1021100020408005050506000120A870A8200505BF
:10212000050600012020F820200203030602FFC05C
:102130004080050101060003F8020202060200C009
:10214000C0050505060001081020408005070706A8
:10215000000070888888888870030707060100409F
:10216000C040404040E00507070600007088087046
:102170008080F8050707060000F81020100808F016
:1021800005070706000010305090F81010050707EB
:10219000060000F880F008088870050707060000B0
:1021A000708080F0888870050707060000F8081026
:1021B0002020202005070706000070888870888886
:1021C0007005070706000070888878080870020507
:1021D00005060200C0C000C0C00206060602FFC01D
:1021E000C000C04080040707060000102040804067
:1021F0002010050303060002F800F8040707060193
:1022000000804020102040800507070600007088ED
:10221000081020002005070706000070880868A83D
:10222000A870050707060000708888F88888880568
:102230000707060000F08888F08888F00507070681
:10224000000070888080808870050707060000F015
:102250008888888888F0050707060000F88080F0E5
:102260008080F8050707060000F88080F0808080F5
:10227000050707060000708880B888887005070782
:10228000060000888888F888888801070706020009
:10229000808080808080800507070600003810104D
:1022A000101090600507070600008890A0C0A0905D
:1022B00088050707060000808080808080F8050779
:1022C0000706000088D8A8888888880507070600C0
:1022D000008888C8A89888880507070600007088C5
:1022E0008888888870050707060000F08888F080D5
:1022F000808005070706000070888888A890680518
:102300000707060000F08888F0A0908805070706F8
:102310000000788080700808F0050707060000F8C4
:1023200020202020202005070706000088888888B4
:1023300088887005070706000088888888885020EC
:102340000507070600008888888888A850050707C1
:10235000060000888850205088880507070600007E
:1023600088888850202020050707060000F80810FC
:10237000204080F8030707060100E080808080800D
:10238000E005050506000180402010080307070648
:102390000100E02020202020E005030306000420A7
:1023A0005088050101060000F802020206020580BD
:1023B00040050505060000700878887805070706BF
:1023C00000008080B0C88888F00505050600007010
:1023D00080808870050707060000080868988888CC
:1023E000780505050600007088F880700507070667
:1023F00000003048E0404040400506060600FF70FF
:1024000088887808700507070600008080B0C888B3
:102410008888010707060200800080808080800392
:1024200008080601FF200020202020A04004070704
:10243000060000808090A0C0A0900307070601005E
:10244000C04040404040E0050505060000D0A8A877
:10245000A8A8050505060000B0C8888888050505F8
:1024600006000070888888700506060600FFF08860
:1024700088F080800506060600FF788888780808BE
:10248000050505060000B0C880808005050506002A
:102490000070807008F00407070600004040E0402C
:1024A00040403005050506000088888898680505C5
:1024B000050600008888885020050505060000886C
:1024C00088A8A850050505060000885020508805FA
:1024D00006060600FF88888878087005050506004E
:1024E00000F8102040F80307070601002040408054
:1024F00040402001070706020080808080808080A5
:10250000030707060100804040204040800502028A
:1025100006000268900000000600000000000600AF
:10252000000000000600000000000600000000009F
:102530000600000000000600000000000600000089
:102540000000060000000000060000000000060079
:10255000000000000600000000000600000000006F
:102560000600000000000600000000000600000059
:102570000000060000000000060000000000060049
:10258000000000000600000000000600000000003F
:102590000600000000000600000000000600000029
:1025A0000000060000000000060000000000060019
:1025B000000000000600000000000600000000000F
:1025C00006000000000006000000000006000000F9
:1025D00000000600000000000600000000000600E9
:1025E00000010707060200800080808080800507C8
:1025F000070600002070A8A0A870200507070600A5
:1026000000304040E04050A80505050600008870F5
:10261000507088050707060000885020F820F82031
:10262000010707060200808080008080800508087E
:102630000600003048205050209060030101060140
:1026400007A0050707060000F888B8B8B888F8059D
:102650000707060001700878887800F80505050668
:1026600000012850A05028050303060001F80808BF
:102670000202020602064080050707060000F888ED
:10268000A88898A8F8050101060006F804040406C5
:102690000003609090600507070600002020F820E6
:1026A0002000F804050506000360902040F00305B3
:1026B00005060003E020E020E002020206020640D8
:1026C000800508080600FF8888888898E8808005CB
:1026D0000707060000789898781818180202020672
:1026E0000202C0C00202020602FF40800305050686
:1026F000000340C04040E0050707060001708888DD
:10270000887000F8050505060001A0502850A005B6
:1027100007070600008890A858B8080805070706AC
:1027200000008890B848982038050808060000C0C6
:1027300040C048D8380808050707060000200020D8
:10274000408088700508080600004020007088F866
:1027500088880508080600001020007088F888881E
:102760000508080600002050007088F888880508D1
:10277000080600006890007088F888880508080638
:1027800000005000708888F8888805080806000056
:102790002050207088F888880507070600003860F8
:1027A000A0B8E0A0B80508080600FF7088808088FF
:1027B000702060050808060000402000F880F080C6
:1027C000F8050808060000081000F880F080F805F9
:1027D0000808060000205000F880F080F805070780
:1027E0000600005000F880F080F803080806010099
:1027F000804000E0404040E003080806010020401F
:1028000000E0404040E003080806010040A000E06E
:10281000404040E0030707060100A000E0404040C0
:10282000E0050707060000704848E84848700508BA
:102830000806000068900088C8A89888050808065F
:10284000000040207088888888700508080600000D
:1028500010207088888888700508080600002050BD
:10286000007088888870050808060000689000706D
:1028700088888870050808060000500070888888DD
:102880008870050505060001885020508805080855
:102890000600FF1070A8A8A8A87040050808060048
:1028A0000040208888888888700508080600001085
:1028B0002088888888887005080806000020500055
:1028C0008888888870050808060000500088888875
:1028D00088887005080806000010208850202020F5
:1028E000200509090600FFC040704848704040E0DC
:1028F0000408080601FF609090A09090E080050811
:10290000080600004020007008788878050808064E
:10291000000010200070087888780508080600007C
:102920002050007008788878050808060000689034
:1029300000700878887805070706000050007008C6
:1029400078887805080806000020502070087888EC
:1029500078050606060000D02878A0A850050606CF
:102960000600FF708088702060050808060000409F
:1029700020007088F880700508080600001020000C
:102980007088F880700508080600002050007088E4
:10299000F8807005070706000050007088F8807006
:1029A00003080806010080400040C04040E00308E2
:1029B0000806010020400040C04040E0030808062F
:1029C000010040A00040C04040E0030707060100AE
:1029D000A00040C04040E0050707060000A040A05E
:1029E00010788870050808060000689000B0C88854
:1029F00088880508080600004020007088888870D4
:102A000005080806000010200070888888700508F6
:102A100008060000205000708888887005080806A5
:102A2000000068900070888888700507070600001D
:102A3000500070888888700505050600012000F8A0
:102A400000200507070600FF1070A8A8A870400521
:102A50000808060000402000888888986805080853
:102A6000060000102000888888986805080806007D
:102A700000205000888888986805070706000050E5
:102A80000088888898680509090600FF10200088DA
:102A90008888F808700407070601FFC0406050608E
:102AA00040E00508080600FF500088888878087014
:102AB00000060900FE000000000001090008FE00F9
:102AC0000005080806000040F0C8888898781005BE
:102AD0000808060000C0F88888888888F805050579
:102AE0000600012030F8302005080806000020709C
:102AF000F820202020E00509090600FF2070A8A882
:102B0000B8888870200509090600FFE080C0B0A8D9
:102B1000283028280509090600FFF8A88888888831
:102B200088A8F8050A0A0600FE205050505088A8D0
:102B3000A8887003030306000340A04000060900B4
:102B4000FE070199032B20FFFE08FE07FE00000090
:102B50000600000107070602008080808080008058
:102B6000030303060104A0A0A00507070600005008
:102B700050F850F850500507070600002070A0706C
:102B800028702005070706000048A8502050A8908C
:102B900005070706000040A0A040A89068010303B5
:102BA0000602048080800307070601002040808021
:102BB000804020030707060100804020202040803D
:102BC0000505050600018850F85088050505060032
:102BD000012020F820200303030601FF6040800548
:102BE0000101060003F80303030601FF40E040056E
:102BF0000707060000080810204080800507070628
:102C00000000205088888850200507070600002013
:102C100060A0202020F80507070600007088083013
:102C20004080F8050707060000F808103008887093
:102C300005070706000010305090F8101005070730
:102C4000060000F880B0C808887005070706000075
:102C5000304080B0C88870050707060000F80810EB
:102C6000102040400507070600007088887088889B
:102C70007005070706000070889868081060030751
:102C8000070601FF40E0400040E04003070706015F
:102C9000FF40E0400060408004070706010010206C
:102CA0004080402010050303060002F800F80407E6
:102CB000070601008040201020408005070706001D
:102CC000007088102020002005070706000070888B
:102CD00098A8B0807005070706000020508888F883
:102CE0008888050707060000F04848704848F00546
:102CF0000707060000708880808088700507070637
:102D00000000F04848484848F0050707060000F86A
:102D10008080F08080F8050707060000F88080F0CA
:102D20008080800507070600007088808098887082
:102D3000050707060000888888F888888803070741
:102D4000060100E04040404040E005070706000063
:102D5000381010101090600507070600008890A03A
:102D6000C0A09088050707060000808080808080D2
:102D7000F80507070600008888D8A888888805070E
:102D8000070600008888C8A89888880507070600F5
:102D90000070888888888870050707060000F0881A
:102DA00088F08080800508080600FF708888888881
:102DB000A87008050707060000F08888F0A0908832
:102DC00005070706000070888070088870050707EF
:102DD000060000F82020202020200507070600001C
:102DE0008888888888887005070706000088888892
:102DF00050505020050707060000888888A8A8D8EA
:102E00008805070706000088885020508888050735
:102E100007060000888850202020200507070600AC
:102E200000F80810204080F8030707060100E08042
:102E300080808080E0050707060000808040201029
:102E40000808030707060100E02020202020E005F5
:102E500003030600042050880501010600FFF80264
:102E6000020206020680400505050600007008788B
:102E700088780507070600008080B0C888C8B005BC
:102E800005050600007088808870050707060000A9
:102E9000080868988898680505050600007088F895
:102EA0008070050707060000304840F040404005AC
:102EB00007070600FE7888887808887005070706E7
:102EC00000008080B0C8888888030707060100409A
:102ED00000C0404040E00409090601FE1000301027
:102EE000101090906005070706000080808890E031
:102EF0009088030707060100C04040404040E005BD
:102F00000505060000D0A8A8A8880505050600004C
:102F1000B0C8888888050505060000708888887014
:102F20000507070600FEB0C888C8B08080050707FF
:102F30000600FE68988898680808050505060000E0
:102F4000B0C880808005050506000070807008F01C
:102F50000507070600004040F040404830050505E1
:102F6000060000888888986805050506000088889E
:102F70005050200505050600008888A8A8500505C2
:102F80000506000088502050880507070600FE88C7
:102F9000889868088870050505060000F81020402C
:102FA000F8040707060100304020C0204030010728
:102FB0000706020080808080808080040707060169
:102FC00000C02040304020C005030306000448A88C
:102FD000900000000100000000000100000000005F
:102FE00001000000000001000000000001000000DE
:102FF00000000100000000000100000000000100CE
:1030000000000000010000000000010000000000BE
:1030100001000000000001000000000001000000AD
:10302000000001000000000001000000000001009D
:10303000000000000100000000000100000000008E
:10304000010000000000010000000000010000007D
:10305000000001000000000001000000000001006D
:10306000000000000100000000000100000000005E
:10307000010000000000010000000000010000004D
:10308000000001000000000001000000000001003D
:10309000000000000100000000000600000107071A
:1030A000060200800080808080800507070600FF00
:1030B0002078A0A0A078200507070600003048402F
:1030C000E04048B00505050600008870507088058E
:1030D00008080600FF88885020F8202020010707F4
:1030E000060200808080008080800508080600FFBE
:1030F0007080E09048380870030101060107A005C0
:1031000007070600007088A8C8A88870040606068D
:1031100001017090B05000F006050506000024483B
:10312000904824040202060102F010040101060185
:1031300003F00507070600007088E8C8C888700516
:103140000101060007F803030306010440A040053F
:1031500006060600002020F82020F80405050601D8
:103160000360902040F0040505060103E0106010A4
:10317000E002020206020640800506060600FF88FD
:103180008888C8B08005070706000078E8E8682846
:103190002828010101060203800202020602FE4005
:1031A0008003050506010340C04040E00406060612
:1031B00001016090906000F006050506000090484F
:1031C0002448900609090600FF40C04040E40C1462
:1031D0003C040609090600FF40C04040E81404080A
:1031E0001C0509090600FFC0204020C818287808DF
:1031F0000507070600002000202040887005080809
:103200000600004020708888F888880508080600B5
:10321000001020708888F8888805080806000020BB
:1032200050708888F8888805080806000048B07043
:103230008888F8888805080806000050007088888B
:10324000F888880508080600002050708888F888EB
:10325000880607070600003C50909CF0909C0509EA
:10326000090600FE7088808080887020400508086C
:1032700006000040F88080F08080F805080806000D
:103280000010F88080F08080F80508080600002013
:10329000F88080F08080F805080806000050F8806B
:1032A00080F08080F80308080601008040E040407C
:1032B0004040E00308080601002040E04040404054
:1032C000E003080806010040A0E040404040E00361
:1032D0000808060100A000E040404040E005070764
:1032E000060000F04848E84848F0050808060000D5
:1032F000285088C8A898888805080806000040203B
:10330000708888888870050808060000102070887A
:103310008888887005080806000020507088888812
:103320008870050808060000285070888888887012
:103330000508080600005000708888888870050518
:103340000506000088502050880507070600007019
:103350009898A8C8C870050808060000402088880A
:1033600088888870050808060000102088888888EA
:10337000887005080806000020500088888888703A
:1033800005080806000050008888888888700508AD
:103390000806000010208888502020200507070616
:1033A000000080F088F0808080050707060000702C
:1033B0008890A09088B005080806000040200070A2
:1033C0000878887805080806000010200070087842
:1033D0008878050808060000205000700878887872
:1033E000050808060000285000700878887805074E
:1033F0000706000050007008788878050808060065
:1034000000205020700878887806050506000078AE
:10341000147C907C0507070600FE70888088702069
:10342000400508080600004020007088F8807005FC
:1034300008080600001020007088F8807005080851
:103440000600002050007088F8807005070706000D
:103450000050007088F88070030808060100804062
:1034600000C0404040E0030808060100408000C062
:10347000404040E003080806010040A000C0404072
:1034800040E0060A0A0600FEA4A800FC84808080B2
:1034900084FC060A0A0600FE549400FC840404041A
:1034A00084FC050808060000285000B0C8888888F9
:1034B0000508080600004020007088888870040A0B
:1034C0000A0602FE30408090909090909090040AFE
:1034D0000A0600FEC02010909090909090900607F1
:1034E00007060001448C8C8480403C0607070600D8
:1034F0000188C4C4840408F0050505060001200005
:10350000F8002005080806000040F0C88888987870
:1035100010050808060000E0F88888888888F80503
:1035200005050600012030F83020050808060000D7
:103530002070F820202020E00509090600FF2070F7
:10354000A8A8B8888850200509090600FFE080C0B7
:10355000B0A8A83028280509090600FFF8A888881F
:10356000888888A8F8050A0A0600FE2050505050A6
:1035700088A8A8887000000000000000000000007B
:10358000007FFFE0000000000000000000000000DD
:103590007000E0000000000000000000000000617A
:1035A000F86000000000000000000000000041F88A
:1035B0002000000000000000000000000040F0209B
:1035C000000000000000000000000000406020003B
:1035D00000000000000000000000005801A07F80F3
:1035E000000000000000004104005C63A0FFC00078
:1035F0000000000000002082005EF7A0FFC0000075
:1036000000000000002082005EF7A0FFC000000064
:10361000000000004104005C63A07F800000000007
:103620000000008208005801A07F80000000000018
:103630000001041000406020FFC0000000000000F6
:103640000104100040F020FFC00000000000000056
:1036500082080041F820FFC0000000000000004187
:10366000040061F8603F000000000000000000005E
:10367000007000E01E0000000000000001FFFF805D
:103680007FFFE00C0000000000000001FFFF800051
:1036900000000000000000000000000000007FFFAC
:1036A000E00000000000000000000000007000E0EA
:1036B000000000000000000000000000630C60003B
:1036C0000000000000000000000000470E20000085
:1036D000000000000000000000004F0F200000006C
:1036E0000000000000000000005F0FA000000000CC
:1036F00000000000000000005E07A07F80000000C6
:1037000000000000410400406020FFC000000000F5
:1037100000000020820040F020FFC00000000000F8
:10372000000020820040F020FFC0000000000000E8
:10373000004104004060207F800000000000000085
:103740008208005E07A07F800000000000000104E6
:1037500010005F0FA0FFC000000000000001041077
:10376000004F0F20FFC00000000000000082080092
:10377000470E20FFC000000000000000410400636D
:103780000C603F000000000000000000000070001E
:10379000E01E0000000000000001FFFF807FFFE04E
:1037A0000C0000000000000001FFFF80000000008E
:1037B0000000000000000000000000000000000009
:1037C00000000000000000000000000000000000F9
:1037D00000000C000000000000000C0000000000D1
:1037E00000001200000000000000230000000000A4
:1037F000000021000000000000004C8000000000DC
:1038000000005E8000000000000092400000000008
:103810000000A14000000000000121200000000085
:1038200000027F9000000000000200100000000075
:103830000007FFF80000000000040008000000007E
:10384000000800040000000000080006000000005E
:10385000001000020000000000301E010000000007
:1038600000207F81000000000041FFE08000000098
:103870000043FCF08000000000873B78400000001F
:10388000018EDBFC60000000010FEBCC200000008B
:10389000021FEDB610000000021FDEB6100000008F
:1038A0000439CD7F080000000436E0FF0800000066
:1038B000087EC0BB84000000187F005D8600000009
:1038C000107FC0ED82000000203CC07301000000AA
:1038D000203B337F01000000701BE77E0380000067
:1038E000C81DEEDE04C00000880FDEDC04400001CD
:1038F000240FDF3C092000012607DBF81920000215
:103900007203E7F0139000025101FFE022900004DF
:1039100089007F802448000904801E004824000B91
:10392000FE400000DFF40010004000008002001F95
:10393000FFFFFFFFFFFE000000000000000000008E
:103940000000000000000000000000000000001067
:1039500022103C3C0E1F0010221004221104001003
:1039600022100822110400102210083C110400103B
:103970002210102211040010221020221104001E17
:103980001C1E3C3C0E040000000000000000000073
:103990000000000000000000000000000000000027
:1039A0000000000000000000000000000000000017
:1039B0000000000000000000000000000000000007
:1039C00000000000000000000000000000000000F7
:1039D00000000000000000000000000000000000E7
:1039E00000000000000000000000000000010508C9
:1039F00000FF060121023520FFFF07FF06FF090037
:103A000050221656808080800080153353A0A0A0DD
:103A10000257575050F850F850500257572070A096
:103A20007028702013355580A040A02002475740D1
:103A3000A0A040A0A050251353808080122656409D
:103A40008080808040122656804040404080024561
:103A5000559060F060900255552020F820201133D9
:103A600053604080044151F011335340E04002461E
:103A70005610102040808012365640A0A0A0A040D2
:103A800012365640C0404040E002465660901060FA
:103A900080F0024656F0206010906002465620608A
:103AA000A0F02020024656F080E0109060024656BA
:103AB0006080E0909060024656F010202040400266
:103AC00046566090609090600246566090907010EC
:103AD00060122555C0C000C0C0113656606000603D
:103AE0004080123656204080804020034353F0002F
:103AF000F012365680402020408012365640A020DA
:103B0000400040015858304898A8A89040300246DC
:103B100056609090F09090024656E090E09090E0D1
:103B2000024656609080809060024656E0909090E9
:103B300090E0024656F080E08080F0024656F08029
:103B4000E0808080024656609080B09060024656C9
:103B50009090F0909090123656E040404040E00245
:103B6000465670202020A04002465690A0C0A0A03B
:103B7000900246568080808080F002465690F0F099
:103B800090909002465690D0F0B0B09002465660A9
:103B90009090909060024656E09090E080800147BF
:103BA00057609090D0B06010024656E09090E09040
:103BB00090024656609040209060123656E0404099
:103BC0004040400246569090909090600246569039
:103BD0009090906060024656909090F0F09002466F
:103BE0005690906060909002565688885020202011
:103BF000024656F010204080F0123656E080808059
:103C000080E0024656808040201010123656E02098
:103C1000202020E016325240A0014151F0162252DD
:103C20008040024454709090700246568080E0902C
:103C300090E01234546080806002465610107090FC
:103C4000907002445460B0C060024656205040E07C
:103C5000404001455560907010600246568080E0FB
:103C60009090901236564000C04040E011375720E7
:103C700000202020A040024656808090E0909012C4
:103C80003656C040404040E0025454D0A8A8A80294
:103C90004454E090909002445460909060014555E7
:103CA000E090E080800145557090701010024454FF
:103CB000A0D0808012345460C020C00246564040DC
:103CC000E040502002445490909070123454A0A0D0
:103CD000A04002545488A8A85002445490606090B8
:103CE0000145559090709060024454F02040F002DD
:103CF0004757304020C020403022165680808080B8
:103D00008080024757C02040304020C006425250B9
:103D1000A0FFFFFFFFFFFFFFFFFFFFFFFFFFFFFF12
:103D2000FFFFFFFFFFFFFFFFFFFFFFFFFFFFFFFFA3
:103D3000FFFF0900502216568000808080800146D7
:103D4000562070A0A070200246562050E04050A09F
:103D500002555588705070880256568850F820F8E1
:103D60002022175780808000808080024757708013
:103D7000E0907010E0173151A002565670A8C8C8E4
:103D8000A87014355560A06000E003435350A05064
:103D9000123353E02020143151E002565670E8D817
:103DA000E8D870173151E015335340A04012355513
:103DB00040E04000E014355540A02040E014355567
:103DC000C020C020C01622524080014555909090DE
:103DD000E08002565678E8E86828282411518011BE
:103DE0002252408014355540C04040E014355540C3
:103DF000A04000E0034353A050A0024757808080BA
:103E0000A060F0200247578080A0D01020700247A9
:103E10005780408060A0F02012365640004080A0BD
:103E20004002475740206090F09090024757204052
:103E30006090F0909002475760906090F0909002F0
:103E4000475750A06090F0909002475790006090C4
:103E5000F0909002475760906090F0909002465624
:103E600070A0A0F0A0B001475760908080906040A3
:103E70000247574020F080E080F00247572040F092
:103E800080E080F00247576090F080E080F00247C9
:103E9000579000F080E080F01237578040E04040BB
:103EA00040E01237572040E0404040E01237574092
:103EB000A0E0404040E0123757A000E0404040E022
:103EC0000256567048E848487002475750A090D0B4
:103ED000B090900247574020609090906002475702
:103EE0002040609090906002475760906090909062
:103EF0006002475750A06090909060024757900032
:103F00006090909060123353A040A002465670B06B
:103F1000B0D0D0E002475740209090909060024788
:103F200057204090909090600247576090909090FA
:103F30009060024757900090909090600257571001
:103F400020885020202002465680E09090E0800299
:103F500046566090A0A090A0024757402000709065
:103F60009070024757204000709090700247572091
:103F700050007090907002475750A0007090907061
:103F800002465650007090907002475760906070E3
:103F9000909070025454F068B0781135556080806C
:103FA000604002475740200060B0C0600247572081
:103FB000400060B0C06002475760900060B0C060D1
:103FC000024656500060B0C060123757804000C0B3
:103FD0004040E0123757204000C04040E0123757C1
:103FE00040A000C04040E0123656A000C04040E073
:103FF000024757A040A01070906002475750A000A1
:10400000E0909090024757402000609090600247F7
:104010005720400060909060024757609000609089
:10402000906002475750A000609090600246569002
:1040300000609090601235554000E000400244540A
:1040400070B0D0E002475740200090909070024737
:1040500057204000909090700247576090009090D9
:104060009070024656900090909070014858204001
:104070000090907090600147578080E090E08080D1
:1040800001475790009090709060000A1400FC0D5A
:10409000024A049920FFFC10FC0DFC0000000A00FD
:1040A00010020D0D0A0400C0C0C0C0C0C0C0C0C016
:1040B000C000C0C00604040A0209CCCCCC48090BDD
:1040C000160A01011B001B001B007F803600360012
:1040D0003600FF006C006C006C00080D0D0A01003A
:1040E000187EDBD8D8D87E1B1B1BDB7E18090C186A
:1040F0000A01007300DB00DE0076000C000C0018E3
:1041000000180037003D806D806700090D1A0A0114
:104110000038006C006C006C00780030007000D833
:1041200000CD80C700C600EF0079800205050A04B3
:1041300008C0C0C0C080050D0D0A030018306060C3
:10414000C0C0C0C0C060603018050D0D0A0200C0BC
:104150006030301818181818303060C00807070A87
:10416000010366663CFF3C66660807070A01031800
:104170001818FF1818180403030A03FF7070E008EA
:1041800001010A0106FF0303030A0400E0E0E0075F
:104190000C0C0A020006060C0C181830306060C0C7
:1041A000C0080D0D0A0100183C6666C3C3C3C3C333
:1041B00066663C18080D0D0A0100183878D81818E2
:1041C000181818181818FF080D0D0A01003C66C3CE
:1041D000C30303061C3060C0C0FF080D0D0A0100B8
:1041E0003C66C3C303061C0603C3C3663C080D0D2F
:1041F0000A010002060E1E3666C6C6FF0606060641
:10420000080D0D0A0100FFC0C0C0C0DCE6030303B7
:10421000C3663C080D0D0A01003C66C2C0C0DCE666
:10422000C3C3C3C3663C080D0D0A0100FF030306A8
:10423000060C0C181830306060080D0D0A01003CA7
:1042400066C3C3C3663C66C3C3C3663C080D0D0AA0
:1042500001003C66C3C3C3C3673B030343663C031F
:1042600008080A0400E0E000000000E0E00409099A
:104270000A03FF7070000000007070E0070D0D0A67
:10428000010002060C183060C06030180C060208ED
:1042900006060A0103FF00000000FF070D0D0A02D9
:1042A0000080C06030180C060C183060C080080D0B
:1042B0000D0A01003C66C3C3C3060C181818001889
:1042C00018080D0D0A01003C66C3CFDFDBDBDBDE27
:1042D000CCC0633E080D0D0A0100183C6666C3C3DE
:1042E000C3FFC3C3C3C3C3080D0D0A0100F8CCC686
:1042F000C6C6CCFCC6C3C3C3C6FC080D0D0A01006C
:104300003C66C3C0C0C0C0C0C0C0C3663C080D0D81
:104310000A0100FCC6C3C3C3C3C3C3C3C3C3C6FC33
:10432000080D0D0A0100FFC0C0C0C0C0FCC0C0C065
:10433000C0C0FF080D0D0A0100FFC0C0C0C0C0FC16
:10434000C0C0C0C0C0C0080D0D0A01003C66C3C09B
:10435000C0C0CFC3C3C3C3673D080D0D0A0100C36E
:10436000C3C3C3C3C3FFC3C3C3C3C3C3080D0D0AC1
:104370000100FF1818181818181818181818FF092D
:104380000D1A0A01001F800600060006000600063E
:1043900000060006000600C600C6006C00380008D3
:1043A0000D0D0A0100C3C3C6C6CCCCF8CCCCC6C622
:1043B000C3C3080D0D0A0100C0C0C0C0C0C0C0C04A
:1043C000C0C0C0C0FF080D0D0A0100C3C3E7E7FF6E
:1043D000DBDBDBDBC3C3C3C3080D0D0A0100C3E392
:1043E000E3F3F3DBDBCFCFC7C7C3C3080D0D0A016F
:1043F000003C66C3C3C3C3C3C3C3C3C3663C080D89
:104400000D0A0100FCC6C3C3C3C3C6FCC0C0C0C004
:10441000C0080E0E0A01FF3C66C3C3C3C3C3C3C3B7
:10442000DBCF663E03080D0D0A0100FCC6C3C3C303
:10443000C3C6FCCCC6C6C3C3080D0D0A01003C664A
:10444000C3C0C0603C060303C3663C080D0D0A01EF
:1044500000FF181818181818181818181818080D28
:104460000D0A0100C3C3C3C3C3C3C3C3C3C3C3666D
:104470003C080D0D0A0100C3C3C3C36666663C3C1D
:104480003C181818080D0D0A0100C3C3C3C3C3DBD1
:10449000DBDBDBE7E7C3C3080D0D0A0100C3C3661E
:1044A000663C3C183C3C6666C3C3080D0D0A01001F
:1044B000C3C366663C3C18181818181818080D0D68
:1044C0000A0100FF0303060C0C18303060C0C0FF67
:1044D000060D0D0A0200FCC0C0C0C0C0C0C0C0C0F4
:1044E000C0C0FC070C0C0A0200C0C060603030186D
:1044F000180C0C0606060D0D0A0200FC0C0C0C0C28
:104500000C0C0C0C0C0C0CFC0804040A0109183CE3
:1045100066C30901020A01FFFF800403030A030ABC
:10452000C060300808080A01003E63037FC3C3C3AC
:104530007D080D0D0A0100C0C0C0C0C0DCE6C3C3C9
:10454000C3C3E6DC0808080A01003E63C0C0C0C05F
:10455000633E080D0D0A010003030303033B67C319
:10456000C3C3C3673B0808080A01003C66C3FFC019
:10457000C0633E080D0D0A01001E33333030FC309D
:10458000303030303030080C0C0A01FC7DC7C6C614
:10459000C67CC07EC3C3C37E080D0D0A0100C0C027
:1045A000C0C0C0DCE6C3C3C3C3C3C3080B0B0A014E
:1045B0000018180078181818181818FF070F0F0A95
:1045C00002FC0606001E06060606060606C6C6C647
:1045D0007C080D0D0A0100C0C0C0C0C0C6CCD8F018
:1045E000F8CCC6C3080D0D0A010078181818181861
:1045F000181818181818FF0808080A0100B6FFDB79
:10460000DBDBDBDBDB0808080A0100DCE6C3C3C335
:10461000C3C3C30808080A01003C66C3C3C3C3661A
:104620003C080C0C0A01FCDCE6C3C3C3C3E6DCC0D7
:10463000C0C0C0080C0C0A01FC3B67C3C3C3C367FE
:104640003B030303030808080A0100DE736060608F
:104650006060600808080A01007EC3C07E0303C3CF
:104660007E080B0B0A0100303030FC303030303027
:10467000331E0808080A0100C3C3C3C3C3C3673B92
:104680000808080A0100C3C366663C3C18180808FD
:10469000080A0100C3C3C3DBDBDBFF660808080AA6
:1046A0000100C3663C18183C66C3080C0C0A01FCE8
:1046B000C3C3C3C3C3C3673B03C3663C0708080A3D
:1046C0000200FE060C183060C0FE080D0D0A010045
:1046D0000F1818181818F018181818180F020D0DC0
:1046E0000A0400C0C0C0C0C0C0C0C0C0C0C0C0C0FC
:1046F000080D0D0A0100F018181818180F181818CE
:104700001818F00803030A010A73DBCEFFFFFFFF4E
:10471000FFFFFFFFFFFFFFFFFFFFFFFFFFFFFFFFA9
:10472000FFFFFFFFFFFFFFFFFFFFFFFFFF00000096
:104730000A0010020D0D0A0400C0C000C0C0C0C0B5
:10474000C0C0C0C0C0C0070C0C0A010018183C66ED
:10475000C2C0C0C2663C1818090C180A01001E002D
:104760003300330030003000FC00300030003000F7
:10477000F800AD80E7000909120A00018080DD80A1
:104780007F006300630063007F00DD808080080B92
:104790000B0A010081C3663C7E187E1818181802A7
:1047A0000D0D0A0400C0C0C0C0C0000000C0C0C0E1
:1047B000C0C0080D0D0A01003C66C66078CC6633A7
:1047C0001E0663663C0602020A020BCCCC080B0BE9
:1047D0000A01003C66C3BDA5A1A5BDC3663C08098E
:1047E000090A01043E43037FC3C37D00FF090B1682
:1047F0000A000004800D801B0036006C00D8006C9D
:104800000036001B000D8004800804040A0104FF28
:10481000FF03030601010A0206FC080B0B0A010054
:104820003C66C3BDA5BDA9ADC3663C0801010A0134
:104830000DFF0606060A02073078CCCC7830080750
:10484000070A01021818FF181800FF0507070A02D7
:104850000670D8183060C0F80507070A020670D83D
:10486000183018D8700403030A030A3060C0070A1E
:104870000A0A01FDC6C6C6C6C6EEFAC0C0C0080D0B
:104880000D0A01007FFFFBFBFB7B1B1B1B1B1B1B84
:104890001B0303030A0405E0E0E00504040A02FC2C
:1048A0003018D8700407070A020660E06060606094
:1048B000F00709090A0104386CC6C6C66C3800FE48
:1048C000090B160A01009000D8006C0036001B008E
:1048D0000D801B0036006C00D8009000080C0C0AFC
:1048E000010140C04142E40812264A9E0202080C1F
:1048F0000C0A010140C04142E40816294182040F1C
:10490000080C0C0A0101E0106112E40812264A9F0B
:104910000202080D0D0A010018180018181830605E
:10492000C3C3C3663C080F0F0A01006030180018AB
:104930003C66C3C3C3FFC3C3C3C3080F0F0A010050
:10494000060C1800183C66C3C3C3FFC3C3C3C30827
:104950000F0F0A0100183C6600183C66C3C3C3FF72
:10496000C3C3C3C3080F0F0A0100327E4C00183CBA
:1049700066C3C3C3FFC3C3C3C3080F0F0A010066E6
:104980006600183C6666C3C3C3FFC3C3C3C3081035
:10499000100A01003C66663C00183C66C3C3C3FFB6
:1049A000C3C3C3C3080D0D0A01001F3C6C6CCCCC03
:1049B000FFCCCCCCCCCCCF0811110A01FC3C66C397
:1049C000C0C0C0C0C0C0C0C3663C180C6C38080F63
:1049D0000F0A010060301800FFC0C0C0C0FCC0C09A
:1049E000C0C0FF080F0F0A01000C183000FFC0C044
:1049F000C0C0FCC0C0C0C0FF080F0F0A0100183CB7
:104A00006600FFC0C0C0C0FCC0C0C0C0FF080F0F20
:104A10000A010066660000FFC0C0C0C0FCC0C0C084
:104A2000C0FF060F0F0A020060301800FC30303063
:104A3000303030303030FC060F0F0A020018306082
:104A400000FC303030303030303030FC060F0F0A90
:104A500002003078CC00FC30303030303030303034
:104A6000FC060F0F0A0200CCCC00FC303030303096
:104A70003030303030FC090D1A0A00007E0063002F
:104A80006180618061806180F98061806180618086
:104A9000618063007E00080F0F0A0100327E4C0027
:104AA000C3E3F3F3DBDBCFCFC7C3C3080F0F0A01A8
:104AB0000030180C003C66C3C3C3C3C3C3C3663C09
:104AC000080F0F0A01000C1830003C66C3C3C3C3B3
:104AD000C3C3C3663C080F0F0A0100183C66003CC4
:104AE00066C3C3C3C3C3C3C3663C080F0F0A010038
:104AF000327E4C003C66C3C3C3C3C3C3C3663C0819
:104B00000F0F0A01006666003C66C3C3C3C3C3C37C
:104B1000C3C3663C0708080A010082C66C38386CBB
:104B2000C682080F0F0A01FF013E66C7C7CBCBCB79
:104B3000D3D3D3E3667C80080F0F0A010030180C32
:104B400000C3C3C3C3C3C3C3C3C3663C080F0F0AB8
:104B500001000C183000C3C3C3C3C3C3C3C3C366BF
:104B60003C080F0F0A0100183C6600C3C3C3C3C34F
:104B7000C3C3C3C3663C080F0F0A0100666600C3C7
:104B8000C3C3C3C3C3C3C3C3C3663C080F0F0A0177
:104B9000000C183000C3C366663C3C18181818187F
:104BA000070D0D0A0200C0C0C0FCC6C6C6C6C6FCC2
:104BB000C0C0C0080D0D0A01001C36636366EC6CB2
:104BC00066636363666C080C0C0A010030180C0005
:104BD0007EC3037FC3C3C37D080C0C0A01000C18FD
:104BE00030007EC3037FC3C3C37D080C0C0A0100E1
:104BF000183C66007EC3037FC3C3C37D080C0C0A48
:104C00000100327E4C007EC3037FC3C3C37D080B0B
:104C10000B0A01006666007EC3037FC3C3C37D0821
:104C20000D0D0A01003C66663C007EC3037FC3C3D2
:104C3000C37D0808080A0100769B1B1E78D8D96E30
:104C4000080C0C0A01FC3E63C0C0C0C0633E180CD7
:104C50006C38080C0C0A0100603018003C66C3FF79
:104C6000C0C0633E080C0C0A0100060C18003C662C
:104C7000C3FFC0C0633E080C0C0A0100183C66006C
:104C80003C66C3FFC0C0633E080B0B0A01006666AA
:104C9000003C66C3FFC0C0633E080C0C0A01006004
:104CA00030180078181818181818FF080C0C0A018A
:104CB000000C18300078181818181818FF080C0C79
:104CC0000A0100183C660078181818181818FF0810
:104CD0000B0B0A010066660078181818181818FFE0
:104CE000080D0D0A010088D87070D88C3E67C3C3C8
:104CF000C3663C080C0C0A0100327E4C00DCE6C3A3
:104D0000C3C3C3C3C3080C0C0A0100603018003CC5
:104D100066C3C3C3C3663C080C0C0A0100060C182A
:104D2000003C66C3C3C3C3663C080C0C0A010018F0
:104D30003C66003C66C3C3C3C3663C080C0C0A0156
:104D400000327E4C003C66C3C3C3C3663C080B0BF9
:104D50000A01006666003C66C3C3C3C3663C080A1A
:104D60000A0A010118180000FFFF00001818080ABD
:104D70000A0A01FF013E66CBCBD3D3667C80080CC8
:104D80000C0A010030180C00C3C3C3C3C3C3673B84
:104D9000080C0C0A0100060C1800C3C3C3C3C3C32C
:104DA000673B080C0C0A0100183C6600C3C3C3C370
:104DB000C3C3673B080B0B0A0100666600C3C3C38D
:104DC000C3C3C3673B0810100A01FC0C183000C3B2
:104DD000C3C3C3C3C3673B03C3663C0711110A02C5
:104DE000FCC0C0C0C0C0C0F8CCC6C6C6CCF8C0C0ED
:104DF000C0C0080F0F0A01FC666600C3C3C3C3C36B
:104E0000C3673B03C3663C00000A0B02090C0D0E8E
:104E1000080703040100000000000000000000007B
:104E20000000000000000000000000000000000082
:104E3000000000121110000000000000000000003F
:104E4000000000000000000000000000000102104F
:104E50002020080810204010204080020102010894
:104E60000402010102040810204080804020100844
:104E7000040201800402018040201008040201089D
:104E800004020101020408102040800102040810FD
:104E900020408005050505070508080808020202EC
:104EA000020A0A08080404040401010101010101C5
:104EB000010303030303030303040707070C0C0C9C
:104EC0000C0C0C0C0C020202020606060606060674
:104ED000060B0B0B0B0B0B0B0B000020002300260B
:104EE0000029002C002F0032000001000003010601
:104EF00001090100002200250028002B002E0031AE
:104F000000340002010000050108010B010000212E
:104F100000240027002A002D00300033000101008A
:104F200000040107010A014E414E494E49545949B6
:104F30004E46CDCCCC3D0AD7233C17B7D13877CCE1
:104F40002B329595E6241FB14F0A00002041000046
:104F5000C84200401C4620BCBE4CCA1B0E5AAEC5FF
:104F60009D74136DECE986EA176D11241FBECFEF17
:104F7000D1E2DEBFCDBF00E00CBF14E0A0E0B2E0A4
:104F8000ECE2F0E002E00BBF02C007900D92A63AFF
:104F9000B107D9F726E1A6EAB4E001C01D92A53712
:104FA000B207E1F71FE4C8E6DFE400E006C022979D
:104FB0000109FE010BBF0E94D0F9C236D10780E083
:104FC0000807A9F70E947FF40D9405000C940000D7
:104FD000452B31F06E9A769A0E944BF2769808959E
:104FE0000C944BF2FC01148217821382128287ED1B
:104FF00093E091838083089527ED33E0FC013183B2
:1050000020832781222319F004960C94E4840895C8
:10501000CF92DF92EF92FF920F931F93CF93DF9384
:10502000EC018F96DFDFCE01805B9F4FDBDF7E01DF
:105030002FE6E20EF11C87016E013BE5C31A3EEF3D
:10504000D30AC801CFDF015E1F4F0C151D05C9F73C
:10505000FE01E955FE4F89E1818314823596178A56
:10506000CE0186539E4FBEDFFE01E558FD4F1082F4
:105070001182128213823896108211821282138258
:105080001A821B8218821982F80111821082FE0195
:10509000E751FE4F108286E391E0F7019C011192E7
:1050A00021503040E1F7FE01E957FD4F81E0808358
:1050B0001EA61DA60E941CF2C158DD4F68577C4EEB
:1050C0008F4F9F4F688379838A839B83DF91CF9132
:1050D0001F910F91FF90EF90DF90CF900895FC010A
:1050E00020E03EE2DB014C91403241F0283011F4E7
:1050F00030833196DB014C91408331962F5F6F5F97
:105100007F4F2B3079F7108208952F923F924F9264
:105110005F926F927F928F929F92AF92BF92CF9247
:10512000DF92EF92FF920F931F93CF93DF93CDB750
:10513000DEB7C657D1090FB6F894DEBF0FBECDBF9C
:105140008C016B015A0129012DB73EB7E3963FAFA1
:105150002EAFE397AD961FAEAD9734E0A30EB11C12
:105160004296E5969FAF8EAFE597180198E7291A0A
:105170009DEF390AF801E657FD4FAF96FFAFEEAF4E
:10518000AF973801F5E06F0E711C7E012FE5E20E3E
:10519000F11C80E490E08C0F9D1F0496E7969FAF72
:1051A0008EAFE797E5964EAD5FADE597BE016F5FB9
:1051B0007F4FC5010E944A8318160CF03EC12C8512
:1051C000322F3871303109F0BCC0F10180819181FA
:1051D0000197029708F4B5C02DB73EB7E1963FAFEF
:1051E0002EAFE197BE016F5F7F4FC70178DF81E08F
:1051F000F601908191119DC0E1E0F0E0D7010D90A2
:105200000020E9F7EE19FF09EA0FFB1F31962DB7D1
:105210003EB72E1B3F0B0FB6F8943EBF0FBE2DBFFF
:10522000EDB7FEB731964F01882319F061E173E0C5
:1052300001C0B601C4010E9406FDB701C4010E946D
:10524000E7FC61E173E0C4010E94E7FCCE01805CF1
:105250009F4FC8DE21E0A701B501E7968EAD9FAD57
:10526000E7970E94DB86811137C0F101808191812F
:10527000892B91F5E5EDFDE08491882341F0909133
:10528000C00095FFFCCF8093C6003196F5CFE3E1D7
:10529000F3E08191882339F09091C00095FFFCCF15
:1052A0008093C600F6CF8091C00085FFFCCF8AE0D6
:1052B0008093C600F7018191882339F09091C00056
:1052C00095FFFCCF8093C600F6CF8091C00085FF8C
:1052D000FCCF8AE08093C6008BE1FE01EC5BFF4FC0
:1052E000DE01959601900D928A95E1F724968EAD98
:1052F0009FAD24979CA38BA387ED93E09AA389A3EA
:1053000020E030E0AE014F5D5F4FB401C801FDDE2B
:10531000CE01819671DECE01805C9F4F6DDEE196FD
:105320002EAD3FADE1970FB6F8943EBF0FBE2DBF37
:1053300039CF80E001900020E9F73197EC19FD09A1
:105340005DCF8981882309F478C08E3209F42ACF91
:10535000F80182898E3209F425CF23FD23CF81E025
:10536000303109F080E0F8018483811108C089851B
:10537000873409F017CF8A858E3709F413CFF101EE
:10538000808191818130910569F08230910581F1B0
:10539000892B09F007CFBE016F5F7F4FC3019FDEEE
:1053A000F60110C0AF96EEADFFADAF978081918151
:1053B000019691838083F6CE9091C00095FFFCCF3B
:1053C0008093C60081918111F7CFF30181918823E9
:1053D00039F09091C00095FFFCCF8093C600F6CFC6
:1053E0008091C00085FFFCCF8AE08093C600DACEB2
:1053F000BE016F5F7F4FC30172DE4114510439F06B
:10540000B301C2010E94D4FC892B79F416C0AD9679
:10541000FFADAD972F2F30E0AF96EEADFFADAF975C
:10542000808191812817390741F0AD96FFADAD9786
:10543000FF5FAD96FFAFAD97B5CEE3962EAD3FAD16
:10544000E3970FB6F8943EBF0FBE2DBFCA58DF4F8B
:105450000FB6F894DEBF0FBECDBFDF91CF911F9185
:105460000F91FF90EF90DF90CF90BF90AF909F9003
:105470008F907F906F905F904F903F902F90089506
:10548000EF92FF920F931F93CF93DF93CDB7DEB7C9
:105490006F970FB6F894DEBF0FBECDBF8C01FC0135
:1054A000E857FD4F118210827C0183E3E80EF11C66
:1054B00040E050E0BA01C7010E9401848BE1F7018E
:1054C000DE01159601900D928A95E1F7F80181A908
:1054D00092A99C838B8387ED93E09A83898320E054
:1054E00030E0AE014F5F5F4F6EEE73E0C8010DDE3E
:1054F000CE01019681DD6F960FB6F894DEBF0FBE28
:10550000CDBFDF91CF911F910F91FF90EF90089544
:105510002BE1FB013496DC01149601900D922A9543
:10552000E1F7FB0122813381FC013383228308955B
:10553000EF92FF920F931F93CF93DF93EC011B82A7
:105540008EA9882321F0CE01C3960E94E4847E01B7
:1055500089E5E81A8EEFF80A45E360E0C7010E948A
:10556000617F81111FC0E5EDFDE08491882341F04A
:105570009091C00095FFFCCF8093C6003196F5CF87
:10558000E8E7F3E08491882341F09091C00095FF13
:10559000FCCF8093C6003196F5CF8091C00085FF87
:1055A000FCCF76C08E0104551E4F41E0B701C80103
:1055B0000E94E58C811126C040E0B701C8010E941D
:1055C000E58C81111FC0EBEDFDE08491882341F053
:1055D0009091C00095FFFCCF8093C6003196F5CF27
:1055E000E5E6F3E08491882341F09091C00095FFB7
:1055F000FCCF8093C6003196F5CF8091C00085FF27
:10560000FCCF46C0B801CE01C3960E94EE81811145
:105610001FC0EBEDFDE08491882341F09091C00024
:1056200095FFFCCF8093C6003196F5CFE5E5F3E01A
:105630008491882341F09091C00095FFFCCF809326
:10564000C6003196F5CF8091C00085FFFCCF20C009
:1056500081E08B83E5EDFDE08491882341F090911A
:10566000C00095FFFCCF8093C6003196F5CFEAE4E9
:10567000F3E08491882341F09091C00095FFFCCF26
:105680008093C6003196F5CF8091C00085FFFCCF96
:105690008AE08093C6008E01015D1F4FB801CE01E4
:1056A000805B9F4F35DFC25BDF4F19830883DF913B
:1056B000CF911F910F91FF90EF900895FC011282FE
:1056C00013820895FC012381222311F021E022831B
:1056D0000895FC012281211112820895AF92BF9298
:1056E000CF92DF92EF92FF920F931F93CF93DF93AE
:1056F0001F92CDB7DEB78C018FE2FB0181935F0172
:10570000D12C41E07801FBE5EF1AFEEFFF0A8FE1B3
:10571000C82E2D2D30E0F70180819181281739079F
:10572000D8F4C29EC001C39E900D11248D589F4F86
:10573000B501800F911F49830E949581C501498160
:105740005C010196F5012081222321F04D3810F4EF
:105750004F5FF6CFD394DDCF47FD11C0B501C8012F
:1057600082539E4F0F90DF91CF911F910F91FF9029
:10577000EF90DF90CF90BF90AF900C949581F501A2
:1057800010820F90DF91CF911F910F91FF90EF90BA
:10579000DF90CF90BF90AF9008953F924F925F926D
:1057A0006F927F928F929F92AF92BF92CF92DF9231
:1057B000EF92FF920F931F93CF93DF93CDB7DEB796
:1057C000AC970FB6F894DEBF0FBECDBF7C015B0176
:1057D000FC018381882309F4EDC0C70182539E4FE9
:1057E0000E94E484F7011282CE0101966C01FADB7B
:1057F00027019EE4490E511CC7018F96F201918347
:105800008083F50180818F3209F077C06FE270E00C
:10581000C5010E94F2FC8C010F5F1F4F9AE0392EE8
:105820000115110509F46FC06FE270E0C8010E9414
:10583000F2FC4C01009709F467C00817190708F03B
:1058400063C03C01601A710AA301B801CE018096C1
:105850000E941BFDE0E2F0E0EC0FFD1FE60DF71DDE
:105860001082FE01B0968191882339F09091C0009A
:1058700095FFFCCF8093C600F6CF8091C00085FFD6
:10588000FCCF3092C600F201608171816115710513
:1058900019F06C5F7F4F02C060E070E021E0AE0164
:1058A000405E5F4FCE0105960E94DB8681111EC0CF
:1058B000E6E2F2E08491882341F09091C00095FFE8
:1058C000FCCF8093C6003196F5CFFE01B096819152
:1058D000882339F09091C00095FFFCCF8093C600DB
:1058E000F6CF8091C00085FFFCCF5FC0F201D1826E
:1058F000C08284010F5F1F4F93CFC701805B9F4F12
:10590000F201918380838501F2018081918100976A
:1059100011F0049602C080E090E0B8010E94B187C7
:10592000811103C0E0E0F2E02EC0E8E1F2E08491F2
:10593000882341F09091C00095FFFCCF8093C60072
:105940003196F5CFF8018191882339F09091C0000C
:1059500095FFFCCF8093C600F6CF8091C00085FFF5
:10596000FCCF8AE08093C600F701ED57FD4F10820F
:105970001182128213821CC09091C00095FFFCCF4F
:105980008093C600319684918111F6CFF801819100
:10599000882339F09091C00095FFFCCF8093C6001A
:1059A000F6CF8091C00085FFFCCF8EE28093C600C9
:1059B000C60122DBAC960FB6F894DEBF0FBECDBF9A
:1059C000DF91CF911F910F91FF90EF90DF90CF90DB
:1059D000BF90AF909F908F907F906F905F904F900F
:1059E0003F900895CF93DF93EC018B81811103C029
:1059F000EEEDF1E039C0EEEEF1E08491882341F064
:105A00009091C00095FFFCCF8093C6003196F5CFF2
:105A1000FE01ED57FD4F40815181628173812AE083
:105A200030E086EA94E00E94C9418091C00085FF81
:105A3000FCCF8FE28093C600C558DD4F4881598165
:105A40006A817B812AE030E086EA94E00E94C941C5
:105A50008091C00085FFFCCF0EC09091C00095FFE3
:105A6000FCCF8093C600319684918111F6CF80914E
:105A7000C00085FFFCCF8AE08093C600DF91CF9104
:105A80000895AF92BF92CF92DF92EF92FF920F9361
:105A90001F93CF93DF935C01EB01FB01019000208A
:105AA000E9F78F0101501109061B170B6C01F2E396
:105AB000CF1AFEEFDF0AF60110826EE470E0CE012D
:105AC0000E94F2FC7C01009729F4F8013197EC0F59
:105AD000FD1F0DC060E270E00E94F2FCEC01219617
