:100000000C94D5270C9406280C9406280C940628EA
:100010000C9406280C9406280C9406280C940628A8
:100020000C9406280C9406280C9406280C94062898
:100030000C9406280C9406280C9406280C94062888
:100040000C9406280C947E8F0C9406280C94062899
:100050000C9406280C9406280C9453A70C942FF2A9
:100060000C9406280C9471400C9406280C940628D5
:100070000C9406280C9406280C9406280C94062848
:100080000C9406280C9406280C9406280C94062838
:100090000C9406280C9406280C9406280C940FEB5C
:1000A0000C9406280C9406280C9406280C94062818
:1000B0000C9406280C9406280C9406280C94062808
:1000C0000C9406280C9406280C9406280C940628F8
:1000D0000C9406280C9406280C9406280C940628E8
:1000E0000C940628ADA7BCA7DBA7EAA705A80AA819
:1000F0000DA812A815A81AA81DA822A82CA852F36A
:1001000057F35CF366F370F3E9F37AF382F38AF35F
:1001100094F39EF3A8F3B7F3C1F3E9F3CBF3D5F36C
:10012000DFF30AF40DF4FCF300F406F444F411F4E4
:1001300015F41BF41FF423F429F42DF431F444F4E2
:1001400037F43BF43FF4084AD73B3BCE016E84BC06
:10015000BFFDC12F3D6C74319ABD56833DDA3D0021
:10016000C77F11BED9E4BB4C3E916BAAAABE00006A
:1001700000803F05A84CCDB2D44EB93836A9020C48
:1001800050B9918688083CA6AAAA2ABE0000008021
:100190003F004D383420582059205A2045004361F3
:1001A0006E6E6F7420656E7465722073756264691B
:1001B000723A20006175746F25692E67006572724E
:1001C0006F722077726974696E6720746F20666938
:1001D0006C65004E6F74205344207072696E7469B0
:1001E0006E67005344207072696E74696E67206296
:1001F000797465200044656C6574696F6E20666172
:10020000696C65642C2046696C653A200046696C0F
:10021000652064656C657465643A006F70656E2076
:100220006661696C65642C2046696C653A200057EC
:10023000726974696E6720746F2066696C653A2014
:10024000002E0A006F70656E206661696C65642C13
:100250002046696C653A20002E0A006F70656E209A
:100260006661696C65642C2046696C653A200046BD
:10027000696C652073656C656374656400205369FF
:100280007A653A200046696C65206F70656E65641A
:100290003A20006F70656E206661696C65642C2081
:1002A00046696C653A20004E6F7720667265736808
:1002B0002066696C653A20004E6F7720646F696E26
:1002C000672066696C653A20002220706F730022F7
:1002D00020706172656E743A2200535542524F5538
:1002E00054494E452043414C4C20746172676574FB
:1002F0003A22004B494C4C45442E200074727969D7
:100300006E6720746F2063616C6C207375622D675B
:10031000636F64652066696C657320776974682013
:10032000746F6F206D616E79206C6576656C732ECD
:10033000204D4158206C6576656C2069733A004DFC
:100340003234004D323320257300534420636172F0
:1003500064206F6B006F70656E526F6F7420666102
:10036000696C656400766F6C756D652E696E697475
:10037000206661696C656400534420696E6974206D
:100380006661696C0020204D3230302044300020FE
:10039000204D3230302044002044697361626C6526
:1003A000640046696C616D656E7420736574746970
:1003B0006E67733A0020204D32303920530041756A
:1003C000746F2D526574726163743A20533D30200E
:1003D000746F2064697361626C652C203120746FC6
:1003E00020696E74657270726574206578747275B8
:1003F00064652D6F6E6C79206D6F76657320617307
:10040000207265747261637473206F722072656309
:100410006F7665726965730020460020204D32308A
:10042000382053005265636F7665723A20533D451C
:1004300078747261206C656E67746820286D6D2910
:1004400020463A537065656420286D6D2F6D290034
:10045000205A0020460020204D32303720530052D1
:100460006574726163743A20533D4C656E677468BD
:1004700020286D6D2920463A537065656420286DEB
:100480006D2F6D29205A3A205A4C69667420286DC8
:100490006D290020440020490020204D33303420B5
:1004A0005000204C00204300204400204900202020
:1004B0004D333031205000504944207365747469C5
:1004C0006E67733A0020460020420020204D3134F0
:1004D00035204D3220480020460020420020204D8B
:1004E000313435204D312048002046002042002084
:1004F000204D313435204D302048004D61746572F7
:1005000069616C2068656174757020706172616DDD
:1005100065746572733A00205A0020590020204DFE
:10052000323036205800486F6D65206F66667365FF
:100530007420286D6D293A00204500205A0020586B
:100540000020420020540020204D3230352053003E
:10055000416476616E636564207661726961626C84
:1005600065733A20533D4D696E206665656472611E
:10057000746520286D6D2F73292C20543D4D696EB4
:100580002074726176656C2066656564726174655D
:1005900020286D6D2F73292C20423D6D696E696D89
:1005A000756D207365676D656E742074696D652067
:1005B000286D73292C20583D6D6178696D756D200B
:1005C0005859206A65726B20286D6D2F73292C2075
:1005D000205A3D6D6178696D756D205A206A65728B
:1005E0006B20286D6D2F73292C2020453D6D61787F
:1005F000696D756D2045206A65726B20286D6D2FC1
:1006000073290020540020520020204D3230342025
:100610005000416363656C65726174696F6E733A13
:1006200020503D7072696E74696E672C20523D7265
:1006300065747261637420616E6420543D747261EC
:1006400076656C00204500205A0020590020204D7E
:100650003230312058004D6178696D756D204163ED
:1006600063656C65726174696F6E20286D6D2F73A0
:1006700032293A00204500205A0020590020204D00
:100680003230332058004D6178696D756D20666594
:100690006564726174657320286D6D2F73293A004B
:1006A000204500205A0020590020204D3932205882
:1006B0000053746570732070657220756E69743AAA
:1006C0000048617264636F646564204465666175A7
:1006D0006C742053657474696E6773204C6F616429
:1006E00065640020627974657329002073746F72E9
:1006F00065642073657474696E67732072657472C3
:100700006965766564202800206279746573290024
:1007100053657474696E67732053746F72656420D7
:1007200028004572726F722077726974696E672053
:10073000746F20454550524F4D210020496E76611F
:100740006C696420657874727564657220005072FB
:10075000696E7465722068616C7465642E206B69C3
:100760006C6C28292063616C6C656421004B494CDA
:100770004C45442E20004B494C4C45442E20002033
:10078000746F6F206C6F6E67206578747275736913
:100790006F6E2070726576656E7465640020636F9D
:1007A0006C6420657874727573696F6E2070726501
:1007B00076656E746564006F6B00526573656E6478
:1007C0003A20004368616E67652066696C616D65FB
:1007D0006E74004D36303020486F74656E6420743E
:1007E0006F6F20636F6C6420746F206368616E6745
:1007F000652066696C616D656E74004F6666736531
:1008000074206170706C6965642E004572723A20C4
:10081000546F6F206661722100546F6F20666172A1
:100820002066726F6D207265666572656E63652005
:10083000706F696E740053657474696E67205472CA
:100840006176656C20416363656C65726174696F84
:100850006E3A200053657474696E67205265747235
:1008600061637420416363656C65726174696F6E66
:100870003A200053657474696E67205072696E7413
:1008800020416363656C65726174696F6E3A200024
:1008900053657474696E67205072696E7420616E5E
:1008A000642054726176656C20416363656C657287
:1008B0006174696F6E3A20004D31343520533C69C4
:1008C0006E6465783E206F7574206F662072616E6D
:1008D00067652028302D3129007A5F6D696E3A20D6
:1008E00000795F6D696E3A2000785F6D696E3A201D
:1008F00000205A3A0020593A0020436F756E742048
:10090000583A200020453A00205A3A0020593A002F
:10091000583A004649524D574152455F4E414D4568
:100920003A4D61726C696E20312E312E302D52435A
:10093000342046726F6D204172636869766520537A
:100940004F555243455F434F44455F55524C3A68BB
:10095000747470733A2F2F6769746875622E636FB1
:100960006D2F4D61726C696E4669726D776172654B
:100970002F4D61726C696E2050524F544F434F4C53
:100980005F56455253494F4E3A312E30204D414328
:1009900048494E455F545950453A54415A203520F4
:1009A00045585452554445525F434F554E543A3181
:1009B00020555549443A30303030303030302D30C9
:1009C0003030302D303030302D303030302D303030
:1009D000303030303030303030300A0054415A201E
:1009E00035204F66662E0054415A203520726561CD
:1009F00064792E0042656420646F6E652E00426546
:100A0000642048656174696E672E00486561746989
:100A10006E6720646F6E652E003F0020573A0054C9
:100A2000415A20352072656164792E0048656174F1
:100A3000696E672E2E2E006F6B004B494C4C45445F
:100A40002E200044454255472044525952554E20CD
:100A5000454E41424C45440044454255472045439C
:100A6000484F20454E41424C4544002569206D6960
:100A70006E2C2025692073656300456E64206669CD
:100A80006C65206C69737400426567696E206669E5
:100A90006C65206C697374004E6F206D6F76652EE7
:100AA0000054415A20352072656164792E005265E8
:100AB00073756D696E67207072696E740057616935
:100AC0007420666F7220757365722E2E2E0057612A
:100AD000726E696E673A20486F6D696E6720427565
:100AE0006D702044697669736F72203C2031005329
:100AF0006C6565702E2E2E0020403A002042403A50
:100B000000202F0020423A00202F0020543A00629B
:100B10007573793A2070617573656420666F722011
:100B2000696E70757400627573793A2070617573BF
:100B3000656420666F7220757365720062757379E3
:100B40003A2070726F63657373696E6700220A00E2
:100B5000556E6B6E6F776E20636F6D6D616E643A6C
:100B6000202200256920686F757273202569206D29
:100B7000696E7574657300446F6E65207072696E7E
:100B800074696E672066696C65004B494C4C45443E
:100B90002E200053544F505045442E20005072696F
:100BA0006E7465722073746F70706564206475650F
:100BB00020746F206572726F72732E2046697820E0
:100BC000746865206572726F7220616E642075733F
:100BD00065204D39393920746F20726573746172E4
:100BE000742E202854656D7065726174757265206D
:100BF00069732072657365742E205365742069745F
:100C00002061667465722072657374617274696EB6
:100C10006729004E6F204C696E65204E756D6265C8
:100C200072207769746820636865636B73756D2CD7
:100C3000204C617374204C696E653A20004E6F2021
:100C4000436865636B73756D2077697468206C69A0
:100C50006E65206E756D6265722C204C6173742018
:100C60004C696E653A2000636865636B73756D202F
:100C70006D69736D617463682C204C617374204CD2
:100C8000696E653A20004C696E65204E756D62652F
:100C900072206973206E6F74204C617374204C69EC
:100CA0006E65204E756D6265722B312C204C617320
:100CB00074204C696E653A20004D31313000446F2C
:100CC0006E6520736176696E672066696C652E00BB
:100CD0004D3239002020506C616E6E65724275662F
:100CE00066657242797465733A20002046726565C4
:100CF000204D656D6F72793A20004D61722032345B
:100D0000203230313600436F6D70696C65643A2073
:100D1000002853656261737469616E2C2054415AD6
:100D200020352900207C20417574686F723A2000BC
:100D3000323031362D30332D30372031323A3030A9
:100D400000204C61737420557064617465643A20AE
:100D50000020312E312E302D524334004D61726C03
:100D6000696E0020536F66747761726520526573F7
:100D7000657400205761746368646F6720526573FF
:100D80006574002042726F776E206F757420526513
:100D9000736574002045787465726E616C205265CD
:100DA00073657400506F776572557000737461726B
:100DB00074002200656E7175657565696E67202225
:100DC00000FFFFFF0000A0400000A04000008040A6
:100DD000000095430080894300007A430000000032
:100DE00000000000000000000000954300808943DF
:100DF00000007A4300000000000000000000000036
:100E00006563686F3A004572726F723A0020746FC2
:100E10006F206C6F6E6720657874727573696F6E82
:100E20002070726576656E7465640020636F6C6413
:100E300020657874727573696F6E2070726576655F
:100E40006E746564007C3C3E5E2B3D3F2F5B5D3BDA
:100E50002C2A225C0045313A200045303A20005AC5
:100E60003A2000593A2000583A20004D53312C4D79
:100E700053322050696E730A004D3834205820597F
:100E8000205A204500656E6473746F707320686922
:100E9000743A205A00205A3A00656E6473746F7079
:100EA00073206869743A20590020593A00656E64CD
:100EB00073746F7073206869743A20580020583A30
:100EC00000656E6473746F7073206869743A2000F3
:100ED00024F4D43050C38E20C2A24017828B7011EC
:100EE000127A910D816CD90AA861E108C75866078A
:100EF000615143061E4B5D05C145A7041A4111040B
:100F0000093D9803713931034036DB0265339102A4
:100F1000D4305402802E1D02632CEE01752AC501C7
:100F2000B028A001102781018F2564012B244B01DB
:100F3000E0223401AC211F018D200D01801FFC0037
:100F4000841EED00971DDF00B81CD200E61BC60012
:100F5000201BBC00641AB200B219A8000A19A00034
:100F60006A189900D117910040178B00B5168400BC
:100F700031167E00B31579003A157300C7146F005F
:100F800058146A00EE1366008813630025135E0090
:100F9000C7125B006C12570015125400C1115100AA
:100FA00070114F0021114B00D61049008D104700E1
:100FB0004610440002104200C00F4000800F3E0067
:100FC000420F3C00060F3B00CB0E3800930E37005B
:100FD0005C0E3500270E3400F30D3200C10D3100D8
:100FE000900D3000600D2E00320D2D00050D2C00EF
:100FF000D90C2B00AE0C2900850C29005C0C2700B5
:10100000350C27000E0C2600E80B2400C40B24002E
:10101000A00B23007D0B23005A0B2100390B21006C
:10102000180B2000F80A1F00D90A1E00BB0A1E0078
:101030009D0A1D00800A1D00630A1C00470A1B0050
:101040002C0A1B00110A1A00F7091A00DD09190001
:10105000C4091900AB091900920917007B0918008F
:10106000630917004C0916003609160020091600FE
:101070000A091500F5081500E0081400CC08140052
:10108000B8081400A4081400900813007D0812008A
:101090006B081300580812004608120034081100AB
:1010A000230811001208110001081100F0071000B8
:1010B000E0071000D0071000C0071000B0070F00B5
:1010C000A107100091070E0083070F0074070F009F
:1010D00065070E0057070E0049070E003B070D007D
:1010E0002E070E0020070D0013070D0006070D0048
:1010F000F9060C00ED060D00E0060C00D4060C000D
:10110000C8060C00BC060C00B0060C00A4060B00C0
:1011100099060C008D060B0082060B0077060B006B
:101120006C060B0061060A0057060B004C060A000D
:1011300042060A0038060A002E060A0024060A00A3
:101140001A060A001006090007060A00FD05090034
:10115000F4050900EB050900E2050900D9050900BD
:10116000D0050900C7050900BE050900B50508003E
:10117000AD050800A50509009C05080094050800B8
:101180008C050800840508007C050800740508002B
:101190006C050700650508005D0507005605080099
:1011A0004E05070047050700400508003805070001
:1011B000310507002A050700230507001C05060066
:1011C000160507000F0507000805060002050700C1
:1011D000FB040600F5040700EE040600E804060020
:1011E000E2040700DB040600D5040600CF04060075
:1011F000C9040600C3040600BD040600B7040600C7
:10120000B1040500AC040600A6040600A004050015
:101210009B04060095040500900406008A0405005E
:1012200085040500800406007A04050075040500A5
:10123000700405006B0405006604050061040500E8
:101240005C04050057040500520405004D04050028
:1012500048040500430405003E0404003A04050068
:1012600035040500300404002C04050027040400A4
:10127000230405001E0404001A04040016040500DB
:10128000110404000D040400090405000404040012
:1012900000040400FC030400F8030400F403040049
:1012A000F0030400EC030400E8030400E40304007A
:1012B000E0030400DC030400D8030400D4030400AA
:1012C000D0030400CC030400C8030300C5030300DB
:1012D00024F404D9201BC40C5C0E9804C4095F02DA
:1012E00065077101F405F900FB04B30048048700A9
:1012F000C10369005803550003034500BE023A00CC
:101300008402310053022A00290225000402200031
:10131000E4011C00C8011900AF0117009801140076
:1013200084011300710110006101100051010E00D1
:1013300043010D0036010B002B010B0020010B00B7
:10134000150109000C01090003010800FB00080059
:10135000F3000800EB000700E4000600DE000600D2
:10136000D8000600D2000600CC000500C70005002A
:10137000C2000500BD000400B9000400B50004006F
:10138000B1000400AD000400A9000400A5000300A2
:10139000A20003009F0004009B00030098000300CC
:1013A0009500020093000300900003008D000200EE
:1013B0008B00030088000200860002008400030006
:1013C000810002007F0002007D0002007B0002001D
:1013D000790002007700010076000200740002002C
:1013E00072000100710002006F0002006D00010038
:1013F0006C0002006A000100690002006700010041
:101400006600010065000100640002006200010046
:1014100061000100600001005F0002005D0001004A
:101420005C0001005B0001005A000100590001004E
:10143000580001005700010056000100550001004E
:10144000540001005300000053000100520001004D
:1014500051000100500001004F0001004E0000004B
:101460004E0001004D0001004C0001004B00000047
:101470004B0001004A000100490001004800000043
:10148000480001004700010046000000460001003E
:101490004500000045000100440001004300000039
:1014A0004300010042000000420001004100000032
:1014B00041000100400001003F0000003F0001002A
:1014C0003E0000003E0001003D0000003D00010024
:1014D0003C0000003C0000003C0001003B0000001C
:1014E0003B0001003A0000003A0001003900000012
:1014F0003900010038000000380000003800010009
:101500003700000037000100360000003600000000
:1015100036000100350000003500000035000100F4
:1015200034000000340000003400010033000000EB
:1015300033000000330001003200000032000000E0
:1015400032000100310000003100000031000100D4
:101550003000000030000000300001002F000000CB
:101560002F0000002F0000002F0001002E000000BF
:101570002E0000002E0001002D0000002D000000B4
:101580002D0000002D0001002C0000002C000000A8
:101590002C0000002C0001002B0000002B0000009C
:1015A0002B0000002B0001002A0000002A00000090
:1015B0002A0000002A000100290000002900000084
:1015C0002900000029000000290001002800000077
:1015D000280000002800000028000000280001006A
:1015E000270000002700000027000000270000005F
:1015F0002700010026000000260000002600000051
:101600002600000026000100250000002500000043
:101610002500000025000000250000002500010035
:10162000240000002400000024000000240000002A
:10163000240001002300000023000000230000001C
:10164000230000002300000023000000230001000D
:101650002200000022000000220000002200000002
:1016600022000000220001002100000021000000F3
:1016700021000000210000002100000021000000E6
:1016800021000100200000002000000020000000D8
:1016900020000000200000002000000020000000CA
:1016A000200001001F0000001F0000001F000000BC
:1016B0001F0000001F0000001F0000001F000100AD
:1016C0001E0000001E0000001E0000001E000000A2
:1016D0004D494E54454D5020747269676765726577
:1016E00064004572723A204D494E54454D50204297
:1016F0004544004D415854454D5020747269676708
:1017000065726564004572723A204D415854454DEA
:10171000502042454400546865726D616C205275DA
:101720006E6177617900544845524D414C205255C5
:101730004E415741590048656174696E6720666182
:10174000696C65640048656174696E6720666169EB
:101750006C6564004D494E54454D50207472696764
:101760006765726564004572723A204D494E544572
:101770004D5000626564002C2073797374656D2090
:1017800073746F7070656421204865617465725F61
:1017900049443A20004D415854454D5020747269D7
:1017A000676765726564004572723A204D4158540E
:1017B000454D50004B64200023646566696E6520CA
:1017C0002044454641554C545F004B69200023643A
:1017D0006566696E65202044454641554C545F005E
:1017E0004B70200023646566696E65202044454681
:1017F00041554C545F00504944204175746F7475D5
:101800006E652066696E6973686564212050757421
:1018100020746865206C617374204B702C204B69B8
:1018200020616E64204B6420636F6E7374616E740C
:10183000732066726F6D2062656C6F7720696E74BD
:101840006F20436F6E66696775726174696F6E2E83
:101850006800504944204175746F74756E65206648
:1018600061696C6564212074696D656F75740050E1
:101870004944204175746F74756E65206661696CAA
:101880006564212054656D706572617475726520A0
:10189000746F6F206869676800204B643A200020ED
:1018A0004B693A2000204B703A200020436C617352
:1018B0007369632050494420002054753A20002069
:1018C0004B753A2000206D61783A2000206D696EDA
:1018D0003A200020643A200020626961733A2000B7
:1018E0001000AD0330016A0150022B0170030A01A0
:1018F0009004F500B005E500D006D800F007CE0052
:101900001009C500300ABE00500BB700700CB100C2
:10191000900DAB00B00EA600D00FA200F0109D00FD
:1019200010129900301395005014920070158E001B
:1019300090168B00B0178700D0188400F019810032
:10194000101B7E00301C7B00501D7900701E76003D
:10195000901F7300B0207000D0216E00F0226B0049
:10196000102469003025660050266300702761004E
:1019700090285E00B0295C00D02A5900F02B560058
:10198000102D5400302E5100502F4E0070304B005F
:1019900090314800B0324500D0334200F0343E0070
:1019A00010363B00303737005038330070392E0086
:1019B000903A2900B03B2300D03C1B00F03D1100C1
:1019C000103F0100F03F00001000C90210012C017F
:1019D0004001220170011801B0010E01F001040163
:1019E0005002FA00B002F0003003E600D003DC0041
:1019F0009004D2007005C800A006BE000008B40024
:101A0000B009AA00D00BA000600E960060118C00F7
:101A10000015820020197800C01D6E00A02264000D
:101A2000B0275A00902C500000314600E0343C00B2
:101A300010383200903A2800603C1E00A03D14008F
:101A4000803E0A00203F0000436172642072656D91
:101A50006F766564004361726420696E73657274A9
:101A60006564004D333033205531204525642053C3
:101A70002564004D343238000920000920005A0046
:101A800020003F005A00590020003F005900580034
:101A900020003F0058002D2D2D002D2D3A2D2D001A
:101AA0004D363030004368616E67652066696C6151
:101AB0006D656E7400466C6F7700466C6F770046FC
:101AC000616E2073706565640046616E2073706599
:101AD00065640042656400426564004E6F7A7A6C0A
:101AE00065004E6F7A7A6C650053706565640053CB
:101AF00070656564004D61696E004D6F76652058B4
:101B0000004D6F76652059004D6F7665205A00456F
:101B10007874727564657200457874727564657264
:101B2000004D6F7665205A004D6F76652059004D47
:101B30006F76652058004D6F766520617869730077
:101B40004D6F766520302E316D6D004D6F766520BE
:101B5000316D6D004D6F76652031306D6D005072C6
:101B60006570617265005072656865617420504CE3
:101B70004120426564005072656865617420504C74
:101B800041005072657061726500507265686561F0
:101B90007420504554472042656400507265686562
:101BA0006174205045544700507265706172650041
:101BB000507265686561742041425320426564003B
:101BC00050726568656174204142530050726570BF
:101BD000617265004D383000537769746368207016
:101BE0006F776572206F6E004D38310053776974DE
:101BF000636820706F776572206F666600436F6F51
:101C00006C646F776E005072656865617420414244
:101C10005300507265686561742050455447005008
:101C200072656865617420504C41004D3834004441
:101C3000697361626C65207374657070657273009E
:101C40004D6F766520617869730053657420686F05
:101C50006D65206F666673657473004732380041A6
:101C600075746F20686F6D65004D61696E00537407
:101C70006F7265206D656D6F727900426564004218
:101C80006564004E6F7A7A6C65004E6F7A7A6C6587
:101C90000046616E2073706565640046616E207356
:101CA000706565640054656D706572617475726508
:101CB0000053746F7265206D656D6F7279004265B7
:101CC0006400426564004E6F7A7A6C65004E6F7AEC
:101CD0007A6C650046616E207370656564004661CC
:101CE0006E2073706565640054656D706572617413
:101CF0007572650053746F7265206D656D6F7279D2
:101D00000042656400426564004E6F7A7A6C65003B
:101D10004E6F7A7A6C650046616E207370656564FB
:101D20000046616E2073706565640054656D706572
:101D300072617475726500507265686561742041E6
:101D4000425320636F6E660050726568656174204F
:101D50005045544720636F6E660050726568656138
:101D60007420504C4120636F6E66005049442041FE
:101D700075746F74756E6500504944204175746FB9
:101D800074756E65005049442D43005049442D43FD
:101D9000005049442D44005049442D4400504944CA
:101DA0002D49005049442D49005049442D500050C0
:101DB00049442D500020082046616374002008200B
:101DC00046616374002008204D6178002008204D92
:101DD0006178002008204D696E002008204D696E52
:101DE000004175746F74656D70004F6666004F6ECC
:101DF000200046616E2073706565640046616E2048
:101E000073706565640042656400426564004E6FEE
:101E10007A7A6C65004E6F7A7A6C6500436F6E74E7
:101E2000726F6C004573746570732F6D6D00457330
:101E3000746570732F6D6D005A73746570732F6DB8
:101E40006D005A73746570732F6D6D0059737465EE
:101E500070732F6D6D005973746570732F6D6D0005
:101E60005873746570732F6D6D005873746570735B
:101E70002F6D6D00412D74726176656C00412D747B
:101E8000726176656C00412D7265747261637400D5
:101E9000412D7265747261637400416D61782065D3
:101EA00000416D6178206500416D6178207A0041C4
:101EB0006D6178207A00416D6178207900416D6113
:101EC00078207900416D6178207800416D6178203B
:101ED00078005654726176206D696E0056547261B6
:101EE00076206D696E00566D696E00566D696E00E4
:101EF000566D6178206500566D6178206500566DDD
:101F00006178207A00566D6178207A00566D61788C
:101F1000207900566D6178207900566D61782078BF
:101F200000566D617820780056652D6A65726B00E9
:101F300056652D6A65726B00567A2D6A65726B0064
:101F4000567A2D6A65726B005678792D6A65726BC8
:101F5000005678792D6A65726B00416363656C0089
:101F6000416363656C00436F6E74726F6C00466909
:101F70006C2E204469612E0046696C2E20446961F4
:101F80002E004520696E206D6D33004F6666004F50
:101F90006E2000436F6E74726F6C00556E526574E4
:101FA00020205600556E52657420205600556E5202
:101FB0006574202B6D6D00556E526574202B6D6D10
:101FC00000486F70206D6D00486F70206D6D00527D
:101FD0006574726163742020560052657472616387
:101FE000742020560052657472616374206D6D0018
:101FF00052657472616374206D6D004175746F5227
:102000006574722E004F6666004F6E2000436F6E3F
:1020100074726F6C00526573746F726520666169CB
:102020006C73616665004C6F6164206D656D6F72E5
:10203000790053746F7265206D656D6F727900520F
:102040006574726163740046696C616D656E7400DD
:102050004D6F74696F6E0054656D70657261747553
:102060007265004D61696E00022E2E004D61696E31
:10207000004E6F2053442063617264005072696E99
:10208000742066726F6D2053440053746F7020701B
:1020900072696E7400526573756D65207072696E39
:1020A00074005061757365207072696E7400436FBF
:1020B0006E74726F6C005072657061726500547559
:1020C0006E6500496E666F2073637265656E000011
:1020D000060900FE070192032120FFFF08FF07FF0A
:1020E00000000006000001070706020080808080D3
:1020F000800080030202060105A0A0050707060074
:10210000005050F850F8505005070706000020789E
:10211000A07028F020050707060000C0C810204066
:1021200098180507070600006090A040A890680274
:102130000303060104C04080030707060100204096
:102140008080804020030707060100804020202077
:10215000408005050506000120A870A8200505059A
:102160000600012020F820200203030602FFC040E1
:1021700080050101060003F8020202060200C0C049
:102180000505050600010810204080050707060028
:10219000007088888888887003070706010040C09F
:1021A00040404040E0050707060000708808708046
:1021B00080F8050707060000F81020100808F00551
:1021C000070706000010305090F8101005070706AA
:1021D0000000F880F0080888700507070600007006
:1021E0008080F0888870050707060000F808102036
:1021F00020202005070706000070888870888870F6
:102200000507070600007088887808087002050531
:10221000060200C0C000C0C00206060602FFC0C021
:1022200000C04080040707060000102040804020C6
:1022300010050303060002F800F804070706010072
:1022400080402010204080050707060000708808A5
:102250001020002005070706000070880868A8A85D
:1022600070050707060000708888F88888880507C9
:1022700007060000F08888F08888F0050707060048
:102280000070888080808870050707060000F0884D
:1022900088888888F0050707060000F88080F080AD
:1022A00080F8050707060000F88080F08080800530
:1022B0000707060000708880B88888700507070641
:1022C0000000888888F8888888010707060200804F
:1022D000808080808080050707060000381010107D
:1022E0001090600507070600008890A0C0A09088A5
:1022F000050707060000808080808080F8050707BA
:1023000006000088D8A88888888805070706000086
:102310008888C8A8988888050707060000708888FC
:1023200088888870050707060000F08888F080809C
:102330008005070706000070888888A89068050750
:1023400007060000F08888F0A090880507070600BF
:1023500000788080700808F0050707060000F82064
:10236000202020202005070706000088888888880C
:10237000887005070706000088888888885020052F
:1023800007070600008888888888A8500507070680
:1023900000008888502050888805070706000088BC
:1023A000888850202020050707060000F808102024
:1023B0004080F8030707060100E08080808080E00D
:1023C00005050506000180402010080307070601E7
:1023D00000E02020202020E0050303060004205018
:1023E00088050101060000F802020206020580408D
:1023F00005050506000070087888780507070600BF
:10240000008080B0C88888F005050506000070804F
:102410008088700507070600000808689888887893
:102420000505050600007088F8807005070706009E
:10243000003048E0404040400506060600FF708836
:10244000887808700507070600008080B0C8888873
:1024500088010707060200800080808080800308D2
:10246000080601FF200020202020A04004070706C6
:102470000000808090A0C0A090030707060100C064
:102480004040404040E0050505060000D0A8A8A84F
:10249000A8050505060000B0C8888888050505065A
:1024A000000070888888700506060600FFF088889E
:1024B000F080800506060600FF7888887808080501
:1024C0000505060000B0C8808080050505060000EF
:1024D00070807008F00407070600004040E04040AC
:1024E00040300505050600008888889868050505C0
:1024F00006000088888850200505050600008888A9
:10250000A8A850050505060000885020508805063B
:10251000060600FF88888878087005050506000013
:10252000F8102040F80307070601002040408040D3
:1025300040200107070602008080808080808003A1
:102540000707060100804040204040800502020647
:102550000002689000000006000000000006000075
:102560000000000600000000000600000000000659
:10257000000000000006000000000006000000004F
:102580000006000000000006000000000006000039
:102590000000000600000000000600000000000629
:1025A000000000000006000000000006000000001F
:1025B0000006000000000006000000000006000009
:1025C00000000006000000000006000000000006F9
:1025D00000000000000600000000000600000000EF
:1025E00000060000000000060000000000060000D9
:1025F00000000006000000000006000000000006C9
:1026000000000000000600000000000600000000BE
:1026100000060000000000060000000000060000A8
:102620000107070602008000808080808005070780
:102630000600002070A8A0A870200507070600006B
:10264000304040E04050A805050506000088705065
:102650007088050707060000885020F820F8200140
:102660000707060200808080008080800508080639
:1026700000003048205050209060030101060107FF
:10268000A0050707060000F888B8B8B888F805075D
:1026900007060001700878887800F805050506002F
:1026A000012850A05028050303060001F80808027D
:1026B00002020602064080050707060000F888A807
:1026C0008898A8F8050101060006F804040406002D
:1026D00003609090600507070600002020F8202086
:1026E00000F804050506000360902040F00305058E
:1026F000060003E020E020E002020206020640801D
:102700000508080600FF8888888898E88080050703
:102710000706000078989878181818020202060236
:1027200002C0C00202020602FF4080030505060047
:102730000340C04040E00507070600017088888814
:102740007000F8050505060001A0502850A00507F7
:10275000070600008890A858B80808050707060073
:10276000008890B848982038050808060000C04046
:10277000C048D83808080507070600002000204098
:102780008088700508080600004020007088F888DE
:10279000880508080600001020007088F888880561
:1027A00008080600002050007088F888880508088E
:1027B0000600006890007088F88888050808060000
:1027C000005000708888F8888805080806000020F6
:1027D00050207088F888880507070600003860A038
:1027E000B8E0A0B80508080600FF708880808870EF
:1027F0002060050808060000402000F880F080F8FE
:10280000050808060000081000F880F080F80508A8
:1028100008060000205000F880F080F80507070641
:1028200000005000F880F080F803080806010080DE
:102830004000E0404040E00308080601002040005E
:10284000E0404040E003080806010040A000E040EE
:102850004040E0030707060100A000E0404040E0E0
:10286000050707060000704848E848487005080852
:1028700006000068900088C8A89888050808060027
:1028800000402070888888887005080806000010BD
:10289000207088888888700508080600002050008D
:1028A00070888888700508080600006890007088A5
:1028B000888870050808060000500070888888889D
:1028C0007005050506000188502050880508080697
:1028D00000FF1070A8A8A8A870400508080600000E
:1028E0004020888888888870050808060000102025
:1028F00088888888887005080806000020500088AD
:102900008888887005080806000050008888888834
:10291000887005080806000010208850202020201C
:102920000509090600FFC040704848704040E004B7
:1029300008080601FF609090A09090E080050808CC
:102940000600004020007008788878050808060016
:10295000001020007008788878050808060000201C
:102960005000700878887805080806000068900014
:10297000700878887805070706000050007008780E
:1029800088780508080600002050207008788878AC
:10299000050606060000D02878A0A8500506060601
:1029A00000FF708088702060050808060000402045
:1029B000007088F88070050808060000102000707C
:1029C00088F880700508080600002050007088F81C
:1029D000807005070706000050007088F8807003BB
:1029E000080806010080400040C04040E00308089D
:1029F00006010020400040C04040E00308080601F6
:102A00000040A00040C04040E0030707060100A0CE
:102A10000040C04040E0050707060000A040A010AD
:102A2000788870050808060000689000B0C888889B
:102A30008805080806000040200070888888700516
:102A400008080600001020007088888870050808B3
:102A5000060000205000708888887005080806006D
:102A6000006890007088888870050707060000508D
:102A70000070888888700505050600012000F800B0
:102A8000200507070600FF1070A8A8A870400508D9
:102A90000806000040200088888898680508080615
:102AA0000000102000888888986805080806000043
:102AB00020500088888898680507070600005000A5
:102AC00088888898680509090600FF102000888812
:102AD00088F808700407070601FFC0406050604096
:102AE000E00508080600FF50008888887808700014
:102AF000060900FE000000000001090008FE0000B9
:102B000005080806000040F0C88888987810050875
:102B100008060000C0F88888888888F8050505063A
:102B200000012030F830200508080600002070F869
:102B300020202020E00509090600FF2070A8A8B881
:102B4000888870200509090600FFE080C0B0A82829
:102B50003028280509090600FFF8A8888888888891
:102B6000A8F8050A0A0600FE205050505088A8A870
:102B7000887003030306000340A04000060900FE1E
:102B8000070199032B20FFFE08FE07FE0000000648
:102B9000000001070706020080808080800080031B
:102BA0000303060104A0A0A005070706000050507B
:102BB000F850F850500507070600002070A0702854
:102BC000702005070706000048A8502050A890056F
:102BD000070706000040A0A040A890680103030674
:102BE0000204808080030707060100204080808067
:102BF0004020030707060100804020202040800578
:102C000005050600018850F85088050505060001F5
:102C10002020F820200303030601FF604080050107
:102C200001060003F80303030601FF40E040050727
:102C300007060000080810204080800507070600EE
:102C40000020508888885020050707060000206073
:102C5000A0202020F80507070600007088083040F3
:102C600080F8050707060000F8081030088870058E
:102C7000070706000010305090F8101005070706EF
:102C80000000F880B0C8088870050707060000300B
:102C90004080B0C88870050707060000F8081010CB
:102CA00020404005070706000070888870888870FB
:102CB000050707060000708898680810600307077A
:102CC0000601FF40E0400040E0400307070601FF27
:102CD00040E04000604080040707060100102040EB
:102CE00080402010050303060002F800F8040707DF
:102CF00006010080402010204080050707060000E4
:102D000070881020200020050707060000708898B2
:102D1000A8B0807005070706000020508888F88852
:102D200088050707060000F04848704848F0050786
:102D300007060000708880808088700507070600FD
:102D400000F04848484848F0050707060000F880AA
:102D500080F08080F8050707060000F88080F0808A
:102D600080800507070600007088808098887005BD
:102D70000707060000888888F88888880307070600
:102D80000100E04040404040E005070706000038F1
:102D90001010101090600507070600008890A0C072
:102DA000A09088050707060000808080808080F85A
:102DB0000507070600008888D8A8888888050707BF
:102DC0000600008888C8A8988888050707060000BC
:102DD00070888888888870050707060000F0888852
:102DE000F08080800508080600FF7088888888A821
:102DF0007008050707060000F08888F0A090880595
:102E000007070600007088807008887005070706AD
:102E10000000F82020202020200507070600008859
:102E20008888888888700507070600008888885089
:102E3000505020050707060000888888A8A8D88871
:102E40000507070600008888502050888805070776
:102E50000600008888502020202005070706000073
:102E6000F80810204080F8030707060100E0808082
:102E7000808080E005070706000080804020100861
:102E800008030707060100E02020202020E00503BA
:102E9000030600042050880501010600FFF8020225
:102EA00002060206804005050506000070087888C5
:102EB000780507070600008080B0C888C8B00505FF
:102EC0000506000070888088700507070600000866
:102ED0000868988898680505050600007088F880DD
:102EE00070050707060000304840F04040400507E5
:102EF000070600FE788888780888700507070600AE
:102F0000008080B0C8888888030707060100400059
:102F1000C0404040E00409090601FE1000301010D6
:102F20001090906005070706000080808890E09070
:102F300088030707060100C04040404040E0050507
:102F400005060000D0A8A8A888050505060000B061
:102F5000C88888880505050600007088888870057F
:102F600007070600FEB0C888C8B0808005070706BE
:102F700000FE68988898680808050505060000B0F6
:102F8000C880808005050506000070807008F00587
:102F900007070600004040F04040483005050506A0
:102FA0000000888888986805050506000088885014
:102FB00050200505050600008888A8A850050505CD
:102FC00006000088502050880507070600FE888804
:102FD0009868088870050505060000F8102040F87C
:102FE000040707060100304020C0204030010707D9
:102FF0000602008080808080808004070706010030
:10300000C02040304020C005030306000448A890BB
:1030100000000001000000000001000000000001AD
:10302000000000000001000000000001000000009E
:10303000000100000000000100000000000100008D
:10304000000000010000000000010000000000017D
:10305000000000000001000000000001000000006E
:10306000000100000000000100000000000100005D
:10307000000000010000000000010000000000014D
:10308000000000000001000000000001000000003E
:10309000000100000000000100000000000100002D
:1030A000000000010000000000010000000000011D
:1030B000000000000001000000000001000000000E
:1030C00000010000000000010000000000010000FD
:1030D00000000001000000000006000001070706D4
:1030E0000200800080808080800507070600FF20A6
:1030F00078A0A0A07820050707060000304840E02F
:103100004048B00505050600008870507088050825
:10311000080600FF88885020F820202001070706B5
:103120000200808080008080800508080600FF7013
:1031300080E09048380870030101060107A00507E8
:10314000070600007088A8C8A88870040606060153
:10315000017090B05000F00605050600002448906C
:103160004824040202060102F010040101060103D2
:10317000F00507070600007088E8C8C888700501D8
:1031800001060007F803030306010440A0400506FA
:10319000060600002020F82020F80405050601039B
:1031A00060902040F0040505060103E0106010E087
:1031B00002020206020640800506060600FF888815
:1031C00088C8B08005070706000078E8E868282866
:1031D00028010101060203800202020602FE40806D
:1031E00003050506010340C04040E0040606060151
:1031F000016090906000F0060505060000904824EC
:1032000048900609090600FF40C04040E40C143C09
:10321000040609090600FF40C04040E81404081CE9
:103220000509090600FFC0204020C81828780805B5
:1032300007070600002000202040887005080806C7
:1032400000004020708888F888880508080600007B
:103250001020708888F8888805080806000020502B
:10326000708888F8888805080806000048B07088CB
:1032700088F888880508080600005000708888F8DB
:1032800088880508080600002050708888F888881B
:103290000607070600003C50909CF0909C05090929
:1032A0000600FE708880808088702040050808062F
:1032B000000040F88080F08080F8050808060000D3
:1032C00010F88080F08080F805080806000020F8DB
:1032D0008080F08080F805080806000050F88080A3
:1032E000F08080F80308080601008040E04040407C
:1032F00040E00308080601002040E040404040E074
:1033000003080806010040A0E040404040E00308F8
:1033100008060100A000E040404040E00507070625
:103320000000F04848E84848F00508080600002872
:103330005088C8A8988888050808060000402070B2
:103340008888888870050808060000102070888822
:1033500088887005080806000020507088888888D2
:103360007005080806000028507088888888700555
:1033700008080600005000708888888870050505D8
:103380000600008850205088050707060000709846
:1033900098A8C8C8700508080600004020888888DA
:1033A00088887005080806000010208888888888AA
:1033B000700508080600002050008888888870057D
:1033C000080806000050008888888888700508086A
:1033D00006000010208888502020200507070600DE
:1033E0000080F088F0808080050707060000708864
:1033F00090A09088B00508080600004020007008E2
:103400007888780508080600001020007008788881
:1034100078050808060000205000700878887805B4
:10342000080806000028500070087888780507070B
:10343000060000500070087888780508080600002B
:10344000205020700878887806050506000078145A
:103450007C907C0507070600FE70888088702040FD
:103460000508080600004020007088F880700508F4
:10347000080600001020007088F880700508080613
:1034800000002050007088F88070050707060000D3
:1034900050007088F8807003080806010080400022
:1034A000C0404040E0030808060100408000C040E2
:1034B0004040E003080806010040A000C040404032
:1034C000E0060A0A0600FEA4A800FC84808080842E
:1034D000FC060A0A0600FE549400FC8404040484DA
:1034E000FC050808060000285000B0C88888880538
:1034F00008080600004020007088888870040A0AC6
:103500000602FE30408090909090909090040A0ABD
:103510000600FEC0201090909090909090060707B3
:10352000060001448C8C8480403C0607070600019D
:1035300088C4C4840408F00505050600012000F8CD
:10354000002005080806000040F0C8888898781018
:10355000050808060000E0F88888888888F80505CE
:10356000050600012030F83020050808060000207C
:1035700070F820202020E00509090600FF2070A82F
:10358000A8B8888850200509090600FFE080C0B06F
:10359000A8A83028280509090600FFF8A888888807
:1035A0008888A8F8050A0A0600FE20505050508866
:1035B000A8A88870000000000000000000000000C3
:1035C0007FFFE0000000000000000000000000702D
:1035D00000E000000000000000000000000061F8B2
:1035E0006000000000000000000000000041F82022
:1035F00000000000000000000000000040F020007B
:1036000000000000000000000000004060200000FA
:10361000000000000000000000005801A07F8000B2
:103620000000000000004104005C63A0FFC0000037
:1036300000000000002082005EF7A0FFC000000034
:10364000000000002082005EF7A0FFC00000000024
:103650000000004104005C63A07F800000000000C7
:1036600000008208005801A07F80000000000000D8
:1036700001041000406020FFC000000000000001B5
:1036800004100040F020FFC0000000000000008295
:10369000080041F820FFC0000000000000004104C5
:1036A0000061F8603F000000000000000000000022
:1036B0007000E01E0000000000000001FFFF807F9E
:1036C000FFE00C0000000000000001FFFF80000090
:1036D000000000000000000000000000007FFFE08C
:1036E0000000000000000000000000007000E0008A
:1036F0000000000000000000000000630C600000FB
:1037000000000000000000000000470E2000000044
:103710000000000000000000004F0F20000000002B
:1037200000000000000000005F0FA000000000008B
:10373000000000000000005E07A07F800000000085
:10374000000000410400406020FFC00000000000B5
:10375000000020820040F020FFC0000000000000B8
:103760000020820040F020FFC000000000000000A8
:103770004104004060207F800000000000000082C3
:1037800008005E07A07F8000000000000001041018
:10379000005F0FA0FFC00000000000000104100047
:1037A0004F0F20FFC000000000000000820800470B
:1037B0000E20FFC000000000000000410400630C68
:1037C000603F00000000000000000000007000E00A
:1037D0001E0000000000000001FFFF807FFFE00CE2
:1037E0000000000000000001FFFF8000000000005A
:1037F00000000000000000000000000000000000C9
:1038000000000000000000000000000000000000B8
:10381000000C000000000000000C00000000000090
:103820000012000000000000002300000000000063
:103830000021000000000000004C8000000000009B
:10384000005E8000000000000092400000000000C8
:1038500000A1400000000000012120000000000045
:10386000027F900000000000020010000000000035
:1038700007FFF8000000000004000800000000003E
:10388000080004000000000008000600000000001E
:103890001000020000000000301E010000000000C7
:1038A000207F81000000000041FFE0800000000058
:1038B00043FCF08000000000873B784000000001DE
:1038C0008EDBFC60000000010FEBCC20000000024A
:1038D0001FEDB610000000021FDEB610000000044D
:1038E00039CD7F080000000436E0FF080000000822
:1038F0007EC0BB84000000187F005D8600000010C1
:103900007FC0ED82000000203CC073010000002059
:103910003B337F01000000701BE77E03800000C87E
:103920001DEEDE04C00000880FDEDC044000012430
:103930000FDF3C092000012607DBF8192000027286
:1039400003E7F0139000025101FFE0229000048988
:10395000007F802448000904801E004824000BFEDC
:10396000400000DFF40010004000008002001FFF54
:10397000FFFFFFFFFE00000000000000000000004D
:103980000000000000000000000000000000102205
:10399000103C3C0E1F0010221004221104001022C3
:1039A000100822110400102210083C1104001022FB
:1039B00010102211040010221020221104001E1CDD
:1039C0001E3C3C0E0400000000000000000000004F
:1039D00000000000000000000000000000000000E7
:1039E00000000000000000000000000000000000D7
:1039F00000000000000000000000000000000000C7
:103A000000000000000000000000000000000000B6
:103A100000000000000000000000000000000000A6
:103A20000000000000000000000000000105080088
:103A3000FF060121023520FFFF07FF06FF090050A6
:103A4000221656808080800080153353A0A0A002EB
:103A500057575050F850F850500257572070A070E8
:103A600028702013355580A040A02002475740A061
:103A7000A040A0A05025135380808012265640807D
:103A8000808080401226568040404040800245554C
:103A90009060F060900255552020F820201133539B
:103AA000604080044151F011335340E040024656DB
:103AB00010102040808012365640A0A0A0A04012D6
:103AC000365640C0404040E002465660901060804C
:103AD000F0024656F020601090600246562060A02A
:103AE000F02020024656F080E010906002465660BA
:103AF00080E0909060024656F01020204040024640
:103B00005660906090906002465660909070106091
:103B1000122555C0C000C0C011365660600060401C
:103B200080123656204080804020034353F000F03E
:103B300012365680402020408012365640A0204049
:103B40000040015858304898A8A890403002465686
:103B5000609090F09090024656E090E09090E002E5
:103B60004656609080809060024656E0909090901B
:103B7000E0024656F080E08080F0024656F080E099
:103B8000808080024656609080B0906002465690D9
:103B900090F0909090123656E040404040E002464F
:103BA0005670202020A04002465690A0C0A0A090B1
:103BB0000246568080808080F002465690F0F09059
:103BC000909002465690D0F0B0B090024656609069
:103BD00090909060024656E09090E08080014757B8
:103BE000609090D0B06010024656E09090E09090C7
:103BF000024656609040209060123656E0404040A9
:103C000040400246569090909090600246569090A8
:103C100090906060024656909090F0F09002465668
:103C20009090606090900256568888502020200224
:103C30004656F010204080F0123656E0808080809A
:103C4000E0024656808040201010123656E02020B8
:103C50002020E016325240A0014151F0162252803D
:103C600040024454709090700246568080E09090DC
:103C7000E0123454608080600246561010709090BC
:103C80007002445460B0C060024656205040E0408C
:103C90004001455560907010600246568080E0906B
:103CA00090901236564000C04040E0113757200037
:103CB000202020A040024656808090E0909012364E
:103CC00056C040404040E0025454D0A8A8A8024446
:103CD00054E090909002445460909060014555E00B
:103CE00090E080800145557090701010024454A0FF
:103CF000D0808012345460C020C00246564040E05C
:103D000040502002445490909070123454A0A0A0CF
:103D10004002545488A8A850024454906060900116
:103D200045559090709060024454F02040F0024756
:103D300057304020C020403022165680808080803E
:103D400080024757C02040304020C006425250A059
:103D5000FFFFFFFFFFFFFFFFFFFFFFFFFFFFFFFF73
:103D6000FFFFFFFFFFFFFFFFFFFFFFFFFFFFFFFF63
:103D7000FF09005022165680008080808001465640
:103D80002070A0A070200246562050E04050A002B3
:103D9000555588705070880256568850F820F82083
:103DA000221757808080008080800247577080E013
:103DB000907010E0173151A002565670A8C8C8A8DC
:103DC0007014355560A06000E003435350A05012BA
:103DD0003353E02020143151E002565670E8D8E801
:103DE000D870173151E015335340A040123555407B
:103DF000E04000E014355540A02040E0143555C0A7
:103E000020C020C01622524080014555909090E07D
:103E10008002565678E8E86828282411518011223B
:103E200052408014355540C04040E014355540A004
:103E30004000E0034353A050A0024757808080A079
:103E400060F0200247578080A0D0102070024757B2
:103E500080408060A0F02012365640004080A04094
:103E600002475740206090F09090024757204060F2
:103E700090F0909002475760906090F090900247C9
:103E80005750A06090F0909002475790006090F0DB
:103E9000909002475760906090F090900246567064
:103EA000A0A0F0A0B00147576090808090604002D1
:103EB00047574020F080E080F00247572040F080D4
:103EC000E080F00247576090F080E080F0024757B2
:103ED0009000F080E080F01237578040E040404092
:103EE000E01237572040E0404040E012375740A0F2
:103EF000E0404040E0123757A000E0404040E00280
:103F000056567048E848487002475750A090D0B0C5
:103F10009090024757402060909090600247572051
:103F200040609090906002475760906090909060E1
:103F300002475750A06090909060024757900060F1
:103F400090909060123353A040A002465670B0B0DB
:103F5000D0D0E002475740209090909060024757A1
:103F60002040909090906002475760909090909081
:103F70006002475790009090909060025757102031
:103F8000885020202002465680E09090E080024633
:103F9000566090A0A090A0024757402000709090DB
:103FA0007002475720400070909070024757205091
:103FB000007090907002475750A00070909070026F
:103FC0004656500070909070024757609060709015
:103FD0009070025454F068B078113555608080605C
:103FE0004002475740200060B0C060024757204061
:103FF0000060B0C06002475760900060B0C06002CF
:104000004656500060B0C060123757804000C04034
:1040100040E0123757204000C04040E01237574080
:10402000A000C04040E0123656A000C04040E00270
:104030004757A040A01070906002475750A000E082
:104040009090900247574020006090906002475740
:104050002040006090906002475760900060909010
:104060006002475750A00060909060024656900052
:10407000609090601235554000E00040024454705A
:10408000B0D0E00247574020009090907002475710
:104090002040009090907002475760900090909060
:1040A0007002465690009090907001485820400051
:1040B00090907090600147578080E090E080800190
:1040C000475790009090709060000A1400FC0D0219
:1040D0004A049920FFFC10FC0DFC0000000A0010AF
:1040E000020D0D0A0400C0C0C0C0C0C0C0C0C0C026
:1040F00000C0C00604040A0209CCCCCC48090B1647
:104100000A01011B001B001B007F803600360036B1
:1041100000FF006C006C006C00080D0D0A01001817
:104120007EDBD8D8D87E1B1B1BDB7E18090C180A37
:1041300001007300DB00DE0076000C000C001800AC
:10414000180037003D806D806700090D1A0A0100D4
:1041500038006C006C006C00780030007000D800F3
:10416000CD80C700C600EF0079800205050A04086B
:10417000C0C0C0C080050D0D0A030018306060C0CB
:10418000C0C0C0C060603018050D0D0A0200C060DC
:1041900030301818181818303060C00807070A01A6
:1041A0000366663CFF3C66660807070A01031818A9
:1041B00018FF1818180403030A03FF7070E00801C1
:1041C000010A0106FF0303030A0400E0E0E0070C14
:1041D0000C0A020006060C0C181830306060C0C0D3
:1041E000080D0D0A0100183C6666C3C3C3C3C3664D
:1041F000663C18080D0D0A0100183878D8181818F0
:104200001818181818FF080D0D0A01003C66C3C3E2
:104210000303061C3060C0C0FF080D0D0A01003CFE
:1042200066C3C303061C0603C3C3663C080D0D0A20
:10423000010002060E1E3666C6C6FF060606060802
:104240000D0D0A0100FFC0C0C0C0DCE6030303C3BC
:10425000663C080D0D0A01003C66C2C0C0DCE6C326
:10426000C3C3C3663C080D0D0A0100FF0303060625
:104270000C0C181830306060080D0D0A01003C6607
:10428000C3C3C3663C66C3C3C3663C080D0D0A01C5
:10429000003C66C3C3C3C3673B030343663C0308D8
:1042A000080A0400E0E000000000E0E00409090A58
:1042B00003FF7070000000007070E0070D0D0A0130
:1042C0000002060C183060C06030180C06020806A8
:1042D000060A0103FF00000000FF070D0D0A02009F
:1042E00080C06030180C060C183060C080080D0DBE
:1042F0000A01003C66C3C3C3060C1818180018183E
:10430000080D0D0A01003C66C3CFDFDBDBDBDECC32
:10431000C0633E080D0D0A0100183C6666C3C3C3A6
:10432000FFC3C3C3C3C3080D0D0A0100F8CCC6C642
:10433000C6CCFCC6C3C3C3C6FC080D0D0A01003CB5
:1043400066C3C0C0C0C0C0C0C0C3663C080D0D0A73
:104350000100FCC6C3C3C3C3C3C3C3C3C3C6FC08F5
:104360000D0D0A0100FFC0C0C0C0C0FCC0C0C0C06D
:10437000C0FF080D0D0A0100FFC0C0C0C0C0FCC0D6
:10438000C0C0C0C0C0080D0D0A01003C66C3C0C05B
:10439000C0CFC3C3C3C3673D080D0D0A0100C3C32B
:1043A000C3C3C3C3FFC3C3C3C3C3C3080D0D0A0143
:1043B00000FF1818181818181818181818FF090DE1
:1043C0001A0A01001F80060006000600060006000B
:1043D000060006000600C600C6006C003800080D86
:1043E0000D0A0100C3C3C6C6CCCCF8CCCCC6C6C32C
:1043F000C3080D0D0A0100C0C0C0C0C0C0C0C0C00D
:10440000C0C0C0FF080D0D0A0100C3C3E7E7FFDB12
:10441000DBDBDBC3C3C3C3080D0D0A0100C3E3E349
:10442000F3F3DBDBCFCFC7C7C3C3080D0D0A010011
:104430003C66C3C3C3C3C3C3C3C3C3663C080D0D3B
:104440000A0100FCC6C3C3C3C3C6FCC0C0C0C0C011
:10445000080E0E0A01FF3C66C3C3C3C3C3C3C3DB5C
:10446000CF663E03080D0D0A0100FCC6C3C3C3C3DB
:10447000C6FCCCC6C6C3C3080D0D0A01003C66C30A
:10448000C0C0603C060303C3663C080D0D0A010072
:10449000FF181818181818181818181818080D0DDB
:1044A0000A0100C3C3C3C3C3C3C3C3C3C3C3663CFE
:1044B000080D0D0A0100C3C3C3C36666663C3C3CDD
:1044C000181818080D0D0A0100C3C3C3C3C3DBDBF2
:1044D000DBDBE7E7C3C3080D0D0A0100C3C3666653
:1044E0003C3C183C3C6666C3C3080D0D0A0100C382
:1044F000C366663C3C18181818181818080D0D0AE1
:104500000100FF0303060C0C18303060C0C0FF062A
:104510000D0D0A0200FCC0C0C0C0C0C0C0C0C0C0F9
:10452000C0FC070C0C0A0200C0C0606030301818D4
:104530000C0C0606060D0D0A0200FC0C0C0C0C0CF3
:104540000C0C0C0C0C0CFC0804040A0109183C6649
:10455000C30901020A01FFFF800403030A030AC022
:1045600060300808080A01003E63037FC3C3C37DAF
:10457000080D0D0A0100C0C0C0C0C0DCE6C3C3C343
:10458000C3E6DC0808080A01003E63C0C0C0C0637F
:104590003E080D0D0A010003030303033B67C3C379
:1045A000C3C3673B0808080A01003C66C3FFC0C0DC
:1045B000633E080D0D0A01001E33333030FC3030ED
:1045C0003030303030080C0C0A01FC7DC7C6C6C63E
:1045D0007CC07EC3C3C37E080D0D0A0100C0C0C0ED
:1045E000C0C0DCE6C3C3C3C3C3C3080B0B0A0100CE
:1045F00018180078181818181818FF070F0F0A0253
:10460000FC0606001E06060606060606C6C6C67C8C
:10461000080D0D0A0100C0C0C0C0C0C6CCD8F0F85B
:10462000CCC6C3080D0D0A01007818181818181800
:104630001818181818FF0808080A0100B6FFDBDB75
:10464000DBDBDBDB0808080A0100DCE6C3C3C3C30D
:10465000C3C30808080A01003C66C3C3C3C3663C61
:10466000080C0C0A01FCDCE6C3C3C3C3E6DCC0C013
:10467000C0C0080C0C0A01FC3B67C3C3C3C3673B43
:10468000030303030808080A0100DE73606060602A
:1046900060600808080A01007EC3C07E0303C37E71
:1046A000080B0B0A0100303030FC30303030303332
:1046B0001E0808080A0100C3C3C3C3C3C3673B087D
:1046C00008080A0100C3C366663C3C1818080808BD
:1046D0000A0100C3C3C3DBDBDBFF660808080A016D
:1046E00000C3663C18183C66C3080C0C0A01FCC3E6
:1046F000C3C3C3C3C3673B03C3663C0708080A02BE
:1047000000FE060C183060C0FE080D0D0A01000FF7
:104710001818181818F018181818180F020D0D0A84
:104720000400C0C0C0C0C0C0C0C0C0C0C0C0C008BD
:104730000D0D0A0100F018181818180F181818187D
:1047400018F00803030A010A73DBCEFFFFFFFFFF27
:10475000FFFFFFFFFFFFFFFFFFFFFFFFFFFFFFFF69
:10476000FFFFFFFFFFFFFFFFFFFFFFFF0000000A4B
:104770000010020D0D0A0400C0C000C0C0C0C0C0BF
:10478000C0C0C0C0C0070C0C0A010018183C66C2AB
:10479000C0C0C2663C1818090C180A01001E00337C
:1047A00000330030003000FC00300030003000F8F2
:1047B00000AD80E7000909120A00018080DD807FDA
:1047C000006300630063007F00DD808080080B0BC6
:1047D0000A010081C3663C7E187E18181818020D65
:1047E0000D0A0400C0C0C0C0C0000000C0C0C0C0EE
:1047F000C0080D0D0A01003C66C66078CC66331E09
:104800000663663C0602020A020BCCCC080B0B0ABC
:1048100001003C66C3BDA5A1A5BDC3663C0809094E
:104820000A01043E43037FC3C37D00FF090B160A40
:10483000000004800D801B0036006C00D8006C0066
:1048400036001B000D8004800804040A0104FFFFE9
:1048500003030601010A0206FC080B0B0A01003CD7
:1048600066C3BDA5BDA9ADC3663C0801010A010D23
:10487000FF0606060A02073078CCCC783008070716
:104880000A01021818FF181800FF0507070A020698
:1048900070D8183060C0F80507070A020670D818EB
:1048A0003018D8700403030A030A3060C0070A0AEC
:1048B0000A01FDC6C6C6C6C6EEFAC0C0C0080D0DC8
:1048C0000A01007FFFFBFBFB7B1B1B1B1B1B1B1B36
:1048D0000303030A0405E0E0E00504040A02FC30D7
:1048E00018D8700407070A020660E060606060F094
:1048F0000709090A0104386CC6C6C66C3800FE09EF
:104900000B160A01009000D8006C0036001B000D49
:10491000801B0036006C00D8009000080C0C0A01C7
:104920000140C04142E40812264A9E0202080C0CD3
:104930000A010140C04142E40816294182040F08DF
:104940000C0C0A0101E0106112E40812264A9F02D1
:1049500002080D0D0A01001818001818183060C35D
:10496000C3C3663C080F0F0A010060301800183CF2
:1049700066C3C3C3FFC3C3C3C3080F0F0A01000646
:104980000C1800183C66C3C3C3FFC3C3C3C3080FDE
:104990000F0A0100183C6600183C66C3C3C3FFC37E
:1049A000C3C3C3080F0F0A0100327E4C00183C66D7
:1049B000C3C3C3FFC3C3C3C3080F0F0A01006666A6
:1049C00000183C6666C3C3C3FFC3C3C3C30810104B
:1049D0000A01003C66663C00183C66C3C3C3FFC3C3
:1049E000C3C3C3080D0D0A01001F3C6C6CCCCCFF87
:1049F000CCCCCCCCCCCF0811110A01FC3C66C3C096
:104A0000C0C0C0C0C0C0C3663C180C6C38080F0FD3
:104A10000A010060301800FFC0C0C0C0FCC0C0C0A8
:104A2000C0FF080F0F0A01000C183000FFC0C0C003
:104A3000C0FCC0C0C0C0FF080F0F0A0100183C66D0
:104A400000FFC0C0C0C0FCC0C0C0C0FF080F0F0A3C
:104A5000010066660000FFC0C0C0C0FCC0C0C0C08E
:104A6000FF060F0F0A020060301800FC30303030B3
:104A70003030303030FC060F0F0A02001830600072
:104A8000FC303030303030303030FC060F0F0A024E
:104A9000003078CC00FC303030303030303030FCFA
:104AA000060F0F0A0200CCCC00FC30303030303022
:104AB00030303030FC090D1A0A00007E00630061BE
:104AC00080618061806180F9806180618061806146
:104AD0008063007E00080F0F0A0100327E4C00C385
:104AE000E3F3F3DBDBCFCFC7C3C3080F0F0A01002B
:104AF00030180C003C66C3C3C3C3C3C3C3663C08C1
:104B00000F0F0A01000C1830003C66C3C3C3C3C3B7
:104B1000C3C3663C080F0F0A0100183C66003C66E0
:104B2000C3C3C3C3C3C3C3663C080F0F0A0100322B
:104B30007E4C003C66C3C3C3C3C3C3C3663C080FFB
:104B40000F0A01006666003C66C3C3C3C3C3C3C388
:104B5000C3663C0708080A010082C66C38386CC678
:104B600082080F0F0A01FF013E66C7C7CBCBCBD32C
:104B7000D3D3E3667C80080F0F0A010030180C00C5
:104B8000C3C3C3C3C3C3C3C3C3663C080F0F0A0177
:104B9000000C183000C3C3C3C3C3C3C3C3C3663C44
:104BA000080F0F0A0100183C6600C3C3C3C3C3C388
:104BB000C3C3C3663C080F0F0A0100666600C3C387
:104BC000C3C3C3C3C3C3C3C3663C080F0F0A0100FA
:104BD0000C183000C3C366663C3C18181818180738
:104BE0000D0D0A0200C0C0C0FCC6C6C6C6C6FCC0C9
:104BF000C0C0080D0D0A01001C36636366EC6C66CC
:104C0000636363666C080C0C0A010030180C007EAC
:104C1000C3037FC3C3C37D080C0C0A01000C18300A
:104C2000007EC3037FC3C3C37D080C0C0A010018B8
:104C30003C66007EC3037FC3C3C37D080C0C0A011E
:104C400000327E4C007EC3037FC3C3C37D080B0BC1
:104C50000A01006666007EC3037FC3C3C37D080DDF
:104C60000D0A01003C66663C007EC3037FC3C3C3DC
:104C70007D0808080A0100769B1B1E78D8D96E08AB
:104C80000C0C0A01FC3E63C0C0C0C0633E180C6C33
:104C900038080C0C0A0100603018003C66C3FFC0E5
:104CA000C0633E080C0C0A0100060C18003C66C3E9
:104CB000FFC0C0633E080C0C0A0100183C66003CB3
:104CC00066C3FFC0C0633E080B0B0A0100666600A6
:104CD0003C66C3FFC0C0633E080C0C0A0100603094
:104CE000180078181818181818FF080C0C0A01007A
:104CF0000C18300078181818181818FF080C0C0A2F
:104D00000100183C660078181818181818FF080BCE
:104D10000B0A010066660078181818181818FF08A2
:104D20000D0D0A010088D87070D88C3E67C3C3C3CC
:104D3000663C080C0C0A0100327E4C00DCE6C3C362
:104D4000C3C3C3C3080C0C0A0100603018003C66E2
:104D5000C3C3C3C3663C080C0C0A0100060C180050
:104D60003C66C3C3C3C3663C080C0C0A0100183C74
:104D700066003C66C3C3C3C3663C080C0C0A010052
:104D8000327E4C003C66C3C3C3C3663C080B0B0AAF
:104D900001006666003C66C3C3C3C3663C080A0ADA
:104DA0000A010118180000FFFF00001818080A0A7D
:104DB0000A01FF013E66CBCBD3D3667C80080C0C86
:104DC0000A010030180C00C3C3C3C3C3C3673B0848
:104DD0000C0C0A0100060C1800C3C3C3C3C3C3678D
:104DE0003B080C0C0A0100183C6600C3C3C3C3C3D4
:104DF000C3673B080B0B0A0100666600C3C3C3C34D
:104E0000C3C3673B0810100A01FC0C183000C3C371
:104E1000C3C3C3C3673B03C3663C0711110A02FC4B
:104E2000C0C0C0C0C0C0F8CCC6C6C6CCF8C0C0C0E8
:104E3000C0080F0F0A01FC666600C3C3C3C3C3C327
:104E4000673B03C3663C00000A0B02090C0D0E0809
:104E50000703040100000000000000000000000043
:104E60000000000000000000000000000000000042
:104E700000001211100000000000000000000000FF
:104E800000000000000000000000000001021020EF
:104E90002008081020401020408002010201080470
:104EA0000201010204081020408080402010080404
:104EB000020180040201804020100804020108045D
:104EC00002010102040810204080010204081020A1
:104ED00040800505050507050808080802020202CA
:104EE0000A0A080804040404010101010101010186
:104EF0000303030303030303040707070C0C0C0C51
:104F00000C0C0C0C02020202060606060606060639
:104F10000B0B0B0B0B0B0B0B0000200023002600D0
:104F200029002C002F0032000001000003010601BF
:104F3000090100002200250028002B002E0031006E
:104F4000340002010000050108010B0100002100EE
:104F5000240027002A002D0030003300010100004A
:104F6000040107010A014E414E494E495459494E28
:104F700046CDCCCC3D0AD7233C17B7D13877CC2BC4
:104F8000329595E6241FB14F0A000020410000C869
:104F90004200401C4620BCBE4CCA1B0E5AAEC59DEA
:104FA00074007E6D49EAE3EA826D11241FBECFEFE3
:104FB000D1E2DEBFCDBF00E00CBF14E0A0E0B2E064
:104FC000E6EEF0E002E00BBF02C007900D92A83AB7
:104FD000B107D9F726E1A8EAB4E001C01D92A63DC9
:104FE000B207E1F71FE4C8EADFE400E006C0229759
:104FF0000109FE010BBF0E942DFAC23AD10780E0E1
:105000000807A9F70E94DCF40D9462000C940000DC
:10501000452B31F06E9A769A0E94A8F27698089500
:105020000C94A8F2FC0114821782138212828AED7A
:1050300093E09183808308952AED33E0FC0131836E
:1050400020832781222319F004960C946384089509
:10505000CF92DF92EF92FF920F931F93CF93DF9344
:10506000EC018F96DFDFCE01805B9F4FDBDF7E019F
:105070002FE6E20EF11C87016E013BE5C31A3EEFFD
:10508000D30AC801CFDF015E1F4F0C151D05C9F7FC
:10509000FE01E955FE4F89E1818314823596178A16
:1050A000CE0186539E4FBEDFFE01E558FD4F1082B4
:1050B0001182128213823896108211821282138218
:1050C0001A821B8218821982F80111821082FE0155
:1050D000E751FE4F108286E391E0F7019C011192A7
:1050E00021503040E1F7FE01E957FD4F81E0808318
:1050F0001EA61DA60E9479F2C158DD4F68577C4E4E
:105100008F4F9F4F688379838A839B83DF91CF91F1
:105110001F910F91FF90EF90DF90CF900895FC01C9
:1051200020E03EE2DB014C91403241F0283011F4A6
:1051300030833196DB014C91408331962F5F6F5F56
:105140007F4F2B3079F7108208952F923F924F9224
:105150005F926F927F928F929F92AF92BF92CF9207
:10516000DF92EF92FF920F931F93CF93DF93CDB710
:10517000DEB7C657D1090FB6F894DEBF0FBECDBF5C
:105180008C016B015A0129012DB73EB7E3963FAF61
:105190002EAFE397AD961FAEAD9734E0A30EB11CD2
:1051A0004296E5969FAF8EAFE597180198E7291ACA
:1051B0009DEF390AF801E657FD4FAF96FFAFEEAF0E
:1051C000AF973801F5E06F0E711C7E012FE5E20EFE
:1051D000F11C80E490E08C0F9D1F0496E7969FAF32
:1051E0008EAFE797E5964EAD5FADE597BE016F5F79
:1051F0007F4FC5010E94C98218160CF041C12C8551
:10520000322F3871303109F0BCC0F10180819181B9
:105210000197029708F4B5C02DB73EB7E1963FAFAE
:105220002EAFE197BE016F5F7F4FC70178DF81E04E
:10523000F601908191119DC0E1E0F0E0D7010D9061
:105240000020E9F7EE19FF09EA0FFB1F31962DB791
:105250003EB72E1B3F0B0FB6F8943EBF0FBE2DBFBF
:10526000EDB7FEB731964F01882319F067E173E07F
:1052700001C0B601C4010E9463FDB701C4010E94D0
:1052800044FD67E173E0C4010E9444FDCE01805CEF
:105290009F4FC8DE21E0A701B501E7968EAD9FAD17
:1052A000E7970E945A86811137C0F1018081918170
:1052B000892B91F5E0E0FEE08491882341F0909104
:1052C000C00095FFFCCF8093C6003196F5CFE9E191
:1052D000F3E08191882339F09091C00095FFFCCFD5
:1052E0008093C600F6CF8091C00085FFFCCF8AE096
:1052F0008093C600F7018191882339F09091C00016
:1053000095FFFCCF8093C600F6CF8091C00085FF4B
:10531000FCCF8AE08093C6008BE1FE01EC5BFF4F7F
:10532000DE01959601900D928A95E1F724968EAD57
:105330009FAD24979CA38BA38AED93E09AA389A3A6
:1053400020E030E0AE014F5D5F4FB401C801FDDEEB
:10535000CE01819671DECE01805C9F4F6DDEE196BD
:105360002EAD3FADE1970FB6F8943EBF0FBE2DBFF7
:1053700039CF80E001900020E9F73197EC19FD0961
:105380005DCF8981882309F47BC0853E09F42ACF4B
:105390008E3209F427CFF80182898E3209F422CFA8
:1053A00023FD20CF81E0303109F080E0F8018483D3
:1053B000811108C08985873409F014CF8A858E371A
:1053C00009F410CFF101808191818130910569F05C
:1053D0008230910581F1892B09F004CFBE016F5F06
:1053E0007F4FC3019CDEF60110C0AF96EEADFFAD5E
:1053F000AF9780819181019691838083F3CE9091C4
:10540000C00095FFFCCF8093C60081918111F7CF3A
:10541000F3018191882339F09091C00095FFFCCF72
:105420008093C600F6CF8091C00085FFFCCF8AE054
:105430008093C600D7CEBE016F5F7F4FC3016FDE82
:105440004114510439F0B301C2010E9431FD892B8E
:1054500079F416C0AD96FFADAD972F2F30E0AF9623
:10546000EEADFFADAF97808191812817390741F0EC
:10547000AD96FFADAD97FF5FAD96FFAFAD97B2CEE6
:10548000E3962EAD3FADE3970FB6F8943EBF0FBE47
:105490002DBFCA58DF4F0FB6F894DEBF0FBECDBF89
:1054A000DF91CF911F910F91FF90EF90DF90CF9000
:1054B000BF90AF909F908F907F906F905F904F9034
:1054C0003F902F900895EF92FF920F931F93CF93E9
:1054D000DF93CDB7DEB76F970FB6F894DEBF0FBE80
:1054E000CDBF8C01FC01E857FD4F118210827C0179
:1054F00083E3E80EF11C40E050E0BA01C7010E94CE
:1055000080838BE1F701DE01159601900D928A955B
:10551000E1F7F80181A992A99C838B838AED93E03E
:105520009A83898320E030E0AE014F5F5F4F61EFE7
:1055300073E0C8010ADECE0101967EDD6F960FB6DC
:10554000F894DEBF0FBECDBFDF91CF911F910F91B9
:10555000FF90EF9008952BE1FB013496DC01149647
:1055600001900D922A95E1F7FB0122813381FC0124
:10557000338322830895EF92FF920F931F93CF936B
:10558000DF93EC011B828EA9882321F0CE01C39604
:105590000E9463847E0189E5E81A8EEFF80A45E3EC
:1055A00060E0C7010E94E07E81111FC0E0E0FEE0E4
:1055B0008491882341F09091C00095FFFCCF8093A7
:1055C000C6003196F5CFE8E7F3E08491882341F0F7
:1055D0009091C00095FFFCCF8093C6003196F5CF27
:1055E0008091C00085FFFCCF76C08E0104551E4F10
:1055F00041E0B701C8010E94648C811126C040E0DF
:10560000B701C8010E94648C81111FC0E6E0FEE072
:105610008491882341F09091C00095FFFCCF809346
:10562000C6003196F5CFE5E6F3E08491882341F09A
:105630009091C00095FFFCCF8093C6003196F5CFC6
:105640008091C00085FFFCCF46C0B801CE01C39653
:105650000E946D8181111FC0E6E0FEE084918823E5
:1056600041F09091C00095FFFCCF8093C600319629
:10567000F5CFE5E5F3E08491882341F09091C000F7
:1056800095FFFCCF8093C6003196F5CF8091C00086
:1056900085FFFCCF20C081E08B83E0E0FEE08491B9
:1056A000882341F09091C00095FFFCCF8093C60005
:1056B0003196F5CFEAE4F3E08491882341F09091AC
:1056C000C00095FFFCCF8093C6003196F5CF809146
:1056D000C00085FFFCCF8AE08093C6008E01015D8B
:1056E0001F4FB801CE01805B9F4F35DFC25BDF4F9C
:1056F00019830883DF91CF911F910F91FF90EF9055
:105700000895FC01128213820895EF92FF920F9385
:105710001F93CF93DF93CDB7DEB7C259D1090FB630
:10572000F894DEBF0FBECDBF7F936F9383E493E009
:105730009F938F938E010F5F1F4F1F930F930E94B4
:1057400087FD0F900F900F900F900F900F907E019C
:1057500085E0E80EF11CF7018081882349F0992744
:1057600087FD90950E94D2FCF70181937F01F3CFD2
:10577000C8010E9401628FE393E00E94F743CE5676
:10578000DF4F0FB6F894DEBF0FBECDBFDF91CF91D4
:105790001F910F91FF90EF900895FC012381222328
:1057A00011F021E022830895FC012281211112824F
:1057B0000895AF92BF92CF92DF92EF92FF920F9334
:1057C0001F93CF93DF931F92CDB7DEB78C018FE28B
:1057D000FB0181935F01D12C41E07801FBE5EF1AD9
:1057E000FEEFFF0A8FE1C82E2D2D30E0F7018081FA
:1057F000918128173907D8F4C29EC001C39E900D2D
:1058000011248D589F4FB501800F911F49830E942D
:105810001481C50149815C010196F5012081222393
:1058200021F04D3810F44F5FF6CFD394DDCF47FD14
:1058300011C0B501C80182539E4F0F90DF91CF91E7
:105840001F910F91FF90EF90DF90CF90BF90AF909E
:105850000C941481F50110820F90DF91CF911F916C
:105860000F91FF90EF90DF90CF90BF90AF90089591
:105870003F924F925F926F927F928F929F92AF92E0
:10588000BF92CF92DF92EF92FF920F931F93CF932D
:10589000DF93CDB7DEB7AC970FB6F894DEBF0FBE7F
:1058A000CDBF7C015B01FC018381882309F4EDC03D
:1058B000C70182539E4F0E946384F7011282CE017A
:1058C00001966C01AFDB27019EE4490E511CC70114
:1058D0008F96F20191838083F50180818F3209F0E8
:1058E00077C06FE270E0C5010E944FFD8C010F5F31
:1058F0001F4F9AE0392E0115110509F46FC06FE2B0
:1059000070E0C8010E944FFD4C01009709F467C088
:105910000817190708F063C03C01601A710AA30157
:10592000B801CE0180960E9478FDE0E2F0E0EC0F35
:10593000FD1FE60DF71D1082FE01B09681918823B0
:1059400039F09091C00095FFFCCF8093C600F6CF50
:105950008091C00085FFFCCF3092C600F2016081CB
:1059600071816115710519F06C5F7F4F02C060E0B5
:1059700070E021E0AE01405E5F4FCE0105960E94CF
:105980005A8681111EC0EBE1F2E08491882341F038
:105990009091C00095FFFCCF8093C6003196F5CF63
:1059A000FE01B0968191882339F09091C00095FF57
:1059B000FCCF8093C600F6CF8091C00085FFFCCF5E
:1059C0005FC0F201D182C08284010F5F1F4F93CF6D
:1059D000C701805B9F4FF201918380838501F201B3
:1059E00080819181009711F0049602C080E090E0E0
:1059F000B8010E943087811103C0E5EFF1E02EC0AD
:105A0000EDE0F2E08491882341F09091C00095FF91
:105A1000FCCF8093C6003196F5CFF80181918823A1
:105A200039F09091C00095FFFCCF8093C600F6CF6F
:105A30008091C00085FFFCCF8AE08093C600F7010B
:105A4000ED57FD4F10821182128213821CC090917B
:105A5000C00095FFFCCF8093C600319684918111E0
:105A6000F6CFF8018191882339F09091C00095FF1D
:105A7000FCCF8093C600F6CF8091C00085FFFCCF9D
:105A80008EE28093C600C601D7DAAC960FB6F894C2
:105A9000DEBF0FBECDBFDF91CF911F910F91FF9061
:105AA000EF90DF90CF90BF90AF909F908F907F90BE
:105AB0006F905F904F903F900895CF93DF93EC01EC
:105AC0008B81811103C0E3EDF1E039C0E3EEF1E039
:105AD0008491882341F09091C00095FFFCCF809382
